:20000000F33100131600CD8901CDAC0121B103CDBB0121007806007E2F772310FA3E2832DC
:20002000FD013E0632F80116FECD800116ABCD9601CD9F01CD9F01CD9F01CD9F01CD350214
:2000400016FECD890111BE04CDAD02CD7903AF32DB0032DF0032E300010706ED78112B020A
:20006000BBCAE900112A01BBCAE900FE291601CAFB00C31D01FE041680CA0701FE161640B0
:20008000CA0701FE2C1620CA0701FE2816102877FE5216082871FE511604286BFE50160208
:2000A0002865FE4F1601285FFE6216802864FE591640285EFE5716202858FE581610285212
:2000C000FE601608284CFE5D16042846FE5C16022840FE5E1601283A10813E00D3043E00BA
:2000E000D30F3E00D303C34E00083E00AA32EB00D307ED78BB28FB08C37500083AE300B2B8
:2001000032E30008C37500083ADB00B232DB00081896083ADF00B232DF000818BB11BE0466
:20012000FE3ACAAD0211C104FE3BCAAD0211C404FE3CCAAD0211C704FE3DCAAD0211CA048B
:20014000FE3ECAAD0211CD04FE3FCAAD0211D004FE40CAAD0211D304FE41CAAD0211D6042B
:20016000FE42CAAD0211D904FE43CAAD0211DC04FE44CAAD0211DF04FE45CAAD02C375008A
:200180003EFFA2D300328101C97A2F573A8101B2D300328101C9DB020738FB7AD301C9162E
:2001A000FFCD9601DB020738FBDB01C9210078010008AF77230B78B120F8C97EFE17281055
:2001C000FE182819FE19281DB7C823CDED0118EB237E32FD01237E32F8012318DE237E3283
:2001E000FD012318D6237E32F8012318CEE5D5C5FE0D282DD6204F3E00C678573E005F8304
:2002000083838383C6025F26006929292901EA040906067E12231310FA3AFD013CFE2A38F9
:200220000D3AF8013CFE083801AF32F801AF32FD01C1D1E1C94FE6F00F0F0F0FCD42027923
:20024000E60FFE0A3005C630C3ED01C637C3ED01DD219502060826000E2F0C7BDD96005FB8
:200260007ADD9E01577DDD9E026F30EE7BDD86005F7ADD8E01577DDD8E026FDD23DD23DDFA
:20028000237CB7200779FE303E202803792601CDED0110C4C980969840420FA0860110271C
:2002A00000E803006400000A0000010000ED5346001A32DE02131A32E402131A32EA02138F
:2002C0001A323E03131A324303131A32480316FBCD800116FECD80011603CD960116005A94
:2002E000CD9601160062CD960116006ACD9601AF32E50432E60432E70432E80432E904DDBD
:2003000021EA07CD9F01D3054F06003AE8048132E8043AE7048832E7043AE6048832E604DA
:200320003AE5048832E5043AE904FE0830093C32E904DD7100DD230E01097B885F3E00BB75
:2003400020C13E00BC20BC3E00BD20B716FBCD890116FECD89013E2232FD013E0732F80141
:200360003AE504CD35023AE604CD35023AE704CD35023AE804CD3502C93E0432FD013E075B
:2003800032F801DD21EA07DD7E04CD35023E0B32FD01DD7E05CD35023E1532FD01DD7E061F
:2003A000E6F00F0F0F0F4FDD7E07E6F0B1CD3502C91700005B4E45535D20286275696C6419
:2003C000203230313630363132290D52657365745B4573635D204F53445B426B735D204819
:2003E0005132785B5461625D20524F4D5B46312E2E4631325D444A4F59313A2075736520C3
:200400006172726F77206B65797320666F7220442D506164170703415B415D20425B535D00
:200420002053656C5B53706163655D2053746172745B456E7465725D0D444A4F59323A2021
:20044000757365206E756D706164206B65797320666F7220442D506164170705415B315D74
:2004600020425B325D2053656C5B335D2053746172745B345D0D426F6172643A5265566546
:200480007253452D5531364120465047413A4550344345323220466C61736849443A0D50C9
:2004A00052473A18074348523A180E4D61707065723A1819436865636B73756D3A000AF6D0
:2004C000E90B96F90BF7090CF7190D57290DB7390EB7490F775911F76915F77916978918B7
:2004E00097991E97A9000000000000000000000000000000005E0000000000040200040204
:20050000000000247E247E240000005C54FE54740080004626186462000020544A542050B1
:20052000000000000402000000000000003C420000000000423C00000000001054385410B9
:2005400000000008083E0808000000008060000000000010101010100000000000400000CD
:2005600000000040201008040200003C625A463C00000040447E4040000000645252524C5B
:2005800000000024424A4A340000003028247E200000002E4A4A4A320000003C4A4A4A3289
:2005A0000000000202720A06000000344A4A4A340000000C5252523C0000000000480000E9
:2005C000000000008064000000000000102844000000002828282828000000004428100077
:2005E000000000040252120C0000007E425A5A5E0000007C2222227C0000007E4A4A4A34C5
:200600000000003C424242240000007E4242423C0000003C4A4A4A420000007C0A0A0A023C
:200620000000003C425252340000007E0808087E00000042427E4242000000204242423EA6
:200640000000007E081422400000003E404040400000007E0408047E0000007E0408107E3C
:200660000000003C4242423C0000007E2222221C0000003C4252225C0000007E2222225CAE
:20068000000000244A4A4A3200000002027E02020000003E4040403E0000001E2040201EA8
:2006A0000000003E4030403E00000076080808760000000E5050503E00000062524A464248
:2006C000000000007E42420000000004081020400000000042427E00000000080402040880
:2006E0000000404040404040000000487C4A424400000020545454780000007E48484830CC
:200700000000003844444428000000304848487E0000003854545458000000007C0A0A0209
:2007200000000018A4A4A47C0000007E0808087000000040487A4040000000408080807A77
:200740000000007C1010284400000040427E40400000007C047C04780000007C0404047899
:200760000000003844444438000000FC2424241800000018242424FC0000007804040404B5
:200780000000004854545424000000043E4444400000003C4040403C0000001C2040201CF7
:2007A0000000003C4030403C0000006C1010106C0000009CA0A0A07C000000645454544C65
:2007C0000000000010106C82000000000000EE0000000000826C1010000000040200040203
:2007E00000007E81BDA5817E00000000000000000000000000000000000000000000000099
:200800000000000000000000000000000000000000000000000000000000000000000000D8
:200820000000000000000000000000000000000000000000000000000000000000000000B8
:20084000000000000000000000000000000000000000000000000000000000000000000098
:20086000000000000000000000000000000000000000000000000000000000000000000078
:205C0000FF000000FF0000000023050000000000010006000B000100010006001000000034
:205C200000000000000000000000000000000000000000000000003C4000FFC00154FF00D5
:205C400000000000FFFEFF01380000CB5C0000B65CB65CCB5CDB5CCA5CCC5CD45CDA5CCFE3
:205C600000DC5CDC5CDC5C2D925C10020000FEFF01000000B61A0000E5000058FF00002124
:205C8000005B21170040E0502118211701380038000000000000000000000000000000001F
:205CA00000000000000000000000000000000000000057FFFFFFF409A8104BF409C4155367
:205CC000810FC41552F409C415508080F9C03332373638000E00000080000D800000008085
:205CE00000000A00000000000000000000000000000000000000000000000000000000009A
:205D0000000000000000000000000000000000000000000000000000000000000000000083
:205D2000000000000000000000000000000000000000000000000000000000000000000063
:205D4000000000000000000000000000000000000000000000000000000000000000000043
:205D6000000000000000000000000000000000000000000000000000000000000000000023
:00000001FF
