:200000004E45531A020100000000000000000000DDDDDDDDDDDDDDD4D4D4D4D4D4DDD4D455
:20002000D4D4D4D4DDD4D4D494D4D4DDD4D4D3D3D4D4DDD3D3D1D1D3D3DD1D11D3D3D11D9E
:200040001D8D33D1D1D33D8DD1D1D444D1D1DDD4D4D4D4D4D4DDD4D4D3D3D4D4DDD4D4DD1E
:20006000DDD4D4DDDDDDDDDDDDDDDDDDD9DDD9DDDDDDD4D9DDD4D4D4DDD4DDDD44D494DD16
:20008000DDD4DDDDD9DDDDBDD4DD9DD4B49DBBDDD4DD9DBDDDD444BBB9DDB4DDDDD9B4D47A
:2000A000D4D4DD94D9D4D4DDD4DDD4D4D444D494DDD4D4D444DDDDDDD4DDDDDDD4D4DDD4F8
:2000C000D4DDDDD444DDDDDD4DDD4DDDDDDBBB4DDDDD666D4BBBDDDDDDDDDDBBBBDDD4D4F0
:2000E000442DBBBB4443D4D0DDBBBBDD4DDDD0DDDBDDDD999DDBDDD1D1DDDDDBBBBD42046F
:2001000020333BBBBDDDDDD4D11BBBBD4DD7DDD33BBBDD44D7DDDDDBBBDD944DDDDDD4DDAC
:20012000DDDBBDDDDDDDDBDDBBDD14411DDDBDBDD04444441D8D8DD444444442DDDD03DD4B
:20014000D344D2DDAD0D7D7D42DDDDDD4D11DD42DAADDD44444444DDDDD0444444442DDDB7
:20016000D3344444433DDDD4413443144DBDBD33DDDD33DBBD9BDDDDDDDDBB9DDDDD444DC2
:20018000DDDDDD6D1D4DDD889DDD9D4DDD4DDDDDDD4D444D44DAADAD3DDD3DDDDADDDDDD6C
:2001A0001DAADAAAD44D44DDA4D42DDDDDDDDDADDDDD57DDAAADAD9D4D5DDDDDD11DDDDD51
:2001C000544DDDDD433341DDDD443DDDDDD34DDD3DDDDDDDDDDDDDDDDDD0D2BBDDDDD25DB0
:2001E0002DDD0B20BDD25D2D4D0B20BDD4DD4D9D4BD4BDDDD08D4D37DBBD442DDB4BDD0437
:200200004DDDDD0BBB2DDDDD944D3BBB30449D888D1DBD1D888DD4DD4DDD4DDDDDD42DD36B
:20022000D3DD04BDDD3DDDDDDDBBBDDD1DDDDDDD1BBDDDDDDDD88DDDDDDD9888DDDD9DDDD4
:20024000DD9DDDBD899DDDD9DDDB9DDD9DDDDDDDB99DDD89DDD9DB999D9DDDDDD5D99DDD46
:2002600099DDDD7DDD9D999DD5DDD59DDD99BDD9DDD9DDDD9BDD99DDD889DDBDD9DDDDDD05
:20028000DDDDDDD8D69D66DDDDDDDDDDDDDD4DD4D1D4DDDDB444D4D6D42DDDBBBDD3D4D319
:2002A000D02DBAAAAAAAAAADADD4DDDD11DDDDDDDD4DD04434388D44D4D044B4664DDDD9CF
:2002C000D6DBBBBDDDAADAAAAADAAAADBBD0DD11DDDDDDBB4D2DD0D614DDB64D2DDDD3D47F
:2002E000DDDDDDDDDDD1D3DDDDD4DDDDD6BDDD4DDDDD6B597D4DDDD6B597D8BDDDDD597D98
:200300008BDDDDDDDDD8BDDDDDDDDDDDDB6BDB6BDDDD94D597D597D49DDDDB8BDB8BDDDD72
:20032000DDDD6DDD6DDDDD4DD597D597DD4D4DDB8BDB8BDD4DDD1DDDDDDD1DDDDD44DDDD9A
:20034000D44DDDDDDDDDDDDDDDDDD034DDDDDD432D03DD4DBBD4DD0D4DDD4BBBB4DD0D4DC8
:20036000D04B99B42D4D0114AAAAAA444DD444994994442DDD449D4D9442DDDD444444444D
:2003800042DD4B333993333B4D4BBBBBBBBBBB4DDDBBB111BBBBDDDDD2D4D4DD2DDDDDDD55
:2003A000D9D4D44DDDD04444D4DDDDDDDDD2D4D44DBBBDD0DDDDD9DBBBBDD0D444944BB383
:2003C0009DD3339DD4DBBD0D0444D9BBBBBDDDDDD9DDBBBBB4DD94DBBBB9BBB4DD04BBBBF0
:2003E000BDDDD42DD4BBDDDD8444DDDDBBDDDDD4D0DDD1BBDDDDDDDDDDDDDDDD4444DDDDEB
:20040000D4441D1DD4DDDDDDDD4D3DDDD44DDAAAAAD42DD48DDD666AD4D974DD4D444AAAFA
:20042000DA44DDDDDD9ADDDA8DDDAAADAA44DADDDDDDDDD488DAAADD444DDDDDDDDDDDDD3D
:200440004D88DDD44D0D4DDDDDDDD4DD4DDDDDDDDDDDDDDDDDDD1DDD1DDDDDD4444DDD44BE
:2004600044DDD4DDDD4DDDD9DDD9D43DDD34D44DD4D2B696B0D94DD3DDBBBBBDD84D46DDDE
:20048000BBBBBDD14D49D2B898B0D4DD44D41DDD14D9DD49DDDD4DDDD4DD44444DDD444946
:2004A0009D44DD3DDD3DD4DD44DDDDDDDDDDDDDDDDDDDDDDDDDDBBDD14441DDBBDBDD04483
:2004C0004442DDBDDDD44B4B44DDDDDDD4BB4BB4DDDDBDD4444444DDBDBBDD4B4B4DDBBD88
:2004E000AAAD44444DAAADDDDD00000DDDDDDDDD22222DDDDD555DDDDDDD777D222DDDDDCD
:20050000DD000D7775DDDDD7555DDDDD44DD4DDDDDDBB44DDD4DDDDDBBBBBBBB44DDDDB87E
:200520004B444BBBB49DBB4BBB8BB474DDDBB46BBBB4D4DDD44444BB442BBD5844DDD43D9D
:20054000DDBDD4D4D613BB42BDD4DD043BB4DDBDD44203BB1B4BBDDD4DBDDD4B3BDDDD3D40
:20056000BDDDDBBBDDDDDDDDDDDDDDDDDD9B9DDDDDDDDDDDDBDB6DDDDDDDDBDDDDB1DDDD43
:20058000DDDBBDDBDB6DDDDDDBDBDBDDB1DDDDDBDDBDDDBB6DDDDDBDDDDBBBB1DDDDDBDDA9
:2005A000BDBBBBDD4DDDDDBDDBBB9D44DDDDDBDBBBBD944DDDDDBDBBBD9944DDDDBDDBBD4C
:2005C000DDDD1DDDDD1DDDD4D44DDCCC44DDD4DD4D9CCCCCDDCCC74DD4CCCCDDCCCCCC44F2
:2005E00002DDDDDD5CCCC402D88D4444CCCCCCC44DDDD44CCCC7DDDDD444DCCC44D4DDCC47
:20060000C4CDDDD4D4DDCCCCC8D8DD14DD4CCCCDDDD4DDDD447DDDDDD4D4DDDDDDDDDD9984
:200620009BDDD4DDDDDD9DD9DD4B4DDD4444D9DDD4B4DD4DB499DDDD4DB94BD4DDDDDDDD7F
:200640009D4944DDDDDD4494D9DDDDDDDD4DB49BDDDDDD999BD4DD44DDDD9D4444DD499DB6
:20066000DD9DD9DDDDD944DDB999DDDDDD499DDDDDDDDDDDD99DD4D4D4D4D4D4DDD4D4D48C
:20068000D4D4D4DDD8D8D8D8D8D8DD1D1D4DDD4D1D1D693082080600B401693006020000AA
:2006A000BBDD4DBD4DDBBDBBBB43B34BBBBDBBBBBBBBBBBBBD1D1D4BBB4D1D1DD4D4DDBD5C
:2006C000D4D4DDD4D4DDDDD4D4DDD3D3DDDDD3D3DDDDDAD4DD4D4DDDDDDDDDDD4D9DDDDDD4
:2006E000DAD19D4D4DDD8D4AD9D13D4DDDDD4ADDD4DDDDDD4D4AADAAAADD4DDDD1DDDBDAE2
:20070000D88D4404D9BBBAD11D3D0DD4BBBAD4DDD6DDD4DBDADBDDD4D6D333DDBBBDD4D40B
:20072000DDDDDABBBDDDDDDDDDDADBDDDDD111DD1DDDDDD144444444DDDDDBBBBBBBB44D8C
:20074000DDBBDDDDDDBB44DDBD9DD9DDDBBBDDBD9DD9DDDBBBDDBDDBDDDDBB442DBBBBBBD9
:20076000BBB4442D4BB44BBB4444DDD4444444444D9D9D494444442D9DD943944444999D77
:20078000DDDDDDDDDDDDDDDDDDDBDDDDDDDDDDDDB9BDDDDDDDDDBDDBDDBBDDDDDB4BDDDBD9
:2007A00044BDDDDDB4BDDDBBDDBDBDDBDDBDDDDB9D4BDDDB9BDDBDBD94BDDDBDDB9BDD4BD6
:2007C000DDBDDDBDBDDDBDDB4BDB4BDDDDDDDB4BDDBDDBDDDBDDBDDDDDB9BDB9BDDDDDDB83
:2007E0004BDDDDDDDDDDDDDDDDDDDDD99DDDDDDDDDDDDD9DDDDDDDD99BB494BB99DDDDD991
:20080000BB9BB9DDDDBDDD9BBB9DDDBD9BDDDBBBDDDB9DBDDD68B86DDDBDDDDD9D6D9DDD86
:20082000DDDDD9DD9DD9DDDDDDDDDDDDDDDDDDDDDDDDDDDDDDDDDD9DDDDDDD9DDDDD9D48B5
:20084000DDDD0DDDDD4D4BD3444DDDDBBD4B02DDD99DBBBBBB444D04DDDDBB1184D0430D16
:2008600048D133DDD43D0D0D14CCCCCCCCCD0D3DCCCCCCCCCDDD9DCCCCCCCCCD4D4DCCCC23
:20088000CCCCCD0D4DCCCCCCCCCD0D4DDDDDCCCCCDDD3DDDDDDCCCCDDDD9D4D4D4D9DDD41E
:2008A000D4DDDDD9DDDDD4D4DD9DD9D99DD4DDD4D94DDD9DDDDD44D44D9DDDDD9D4DD44D00
:2008C00044DD9D9DD4D9DD94DDDD44D4DDD49DDDD944D44D44DD4DD4DDD49DDDD44DDDD425
:2008E000D449D9DD4D4D44DDDDD49DDD4D4DDDDDD444DDDDAADDDDDDDDDD6DDABD2DDDDD33
:20090000DDB6DDDD7D2DAADDBBD810DD7BADDDBBBDD910DDDD6DBB86D0D91DD6BDB8DD39E4
:20092000D0D8DBBDDDDDD239DDBBBDDDAB5DD2368BBDDAAD0D5DDDDDBDDDDDDD0DBADD8DF8
:200940009DDDDDDDDAADDD99DDDDDDDDDD9DDDDD9DDDDDDDDD99DD9DD99DDDDDD9DD9DDD3A
:200960009D99BDD9DD999DBD9DDDD4DDDD9D999DDDB99D94944DDDDDDD9B9BDD4DD99DDD0E
:200980009DDBDD9DD9DDDD4DD9DD9949DDB999BB499D49DDDDD4DDDDBBD4DDDDD9DDDDDBD5
:2009A000D4DDDDD9DDDDD9D4DDDDDDDDDDDD57DDDDDDDD6DDD9DDDDDDDD1B1D42DDDDDDDD8
:2009C0006BBB642DDDDDD1BBCBB42DDDDD6BBCCCBB2DDDD1BBCCCCCBB1DD6BBCCCCCCCBB39
:2009E0006DBBCCCCCCCCCBBDDBCCCCCCCCCBDDDBCCCCCCCCCBDDDBCCCDDDCCCBDDDBCCDD68
:200A0000DDDCCBDDDDDDDDDDDD4DDDD4AAD9D4DDDDDDDDAA4BBBAAD9DDDDDDDBBBAA4DDD27
:200A2000D9DDAADBDDDDDDBB4DAA9DDDD4DDBBBDDDDDD9DD9DD4AAD4DDDDDDDD9DAABBAA10
:200A4000BBD4DDDDDDBDAABBAADDDDD9BDDDBBAADDDD4D4DDDDDDDDD4DDDDDDDD49DDDDD3B
:200A6000DDDDDDDDDDDDDDDDD11DDD6DDDD66D1BB6D1B1DD1BB1BBBB1BBB1DBBBBBBBBBB2A
:200A8000BBBD9BABBBBBABBBBDBBAAABBBAAAB9DBBBBAB9BBBABBDBBBBBBBBBBBBBDBBBBCE
:200AA000B33BBBBB8D8BBB3DD3BBB8DDD833DDDD333DDDDDDDDDDDDDDDDDDDDADDDDADDD87
:200AC000DDAADADAAAADAAADBB4DD4DDADABADBAAAAD9DD4BBBDBBDADDADAAAABDAADADAE7
:200AE000ADDADDDDDD4B4D4BDADDADDAABAAAADB4DAD4DD4DDADBBADADAADAADA4AAADDD1A
:200B0000DD4DBBDDBADDADDAAABDDDDADAADDADDDDDDDDDDDDCCCCCCCCCCCCCDCCCCCCCC83
:200B2000CCCCCDCCC4CCCCC4CCCDC4D4D4C4D4D4CDC334DDDDD433CDCCC4149414CCCD9C20
:200B4000CCD8D8DCCC9DCCCCD1D1DCCCCDCCCCD4D4DCCCCDCCC4DD1DD4CCCDC4C4D888D4BD
:200B6000C4CDD414DDDDD414DDD3DDDDDDDDD3DDDDDD9DDDD9DDDDD9DDD9DD9BBDDDDD9DA4
:200B8000DDD9B67DDDDDD9DBBBBBD5DDD7DD9BB9BDD9DDD87BD9BB9DD5DDDDBBBBBDD9DD5F
:200BA000DDD67BD9BDDD9DDDDBBB9D9D6DD9DDBBB9DDDD5DDDDDDD9DDDDDDDD59DDDDDDDC8
:200BC000DDD67DDD7D6DDDDDDDDDDDDDDD20DDDDDDDD2220D2DD22DDDD22244DDD242DDD14
:200BE00000D42DD0244DDDD2D402D2444DDDD20DD424004DDDD2DD0442D24DDDD0DD2442E9
:200C0000D24DDDD033D444D2234DD0DD024022200DDD2D40244DD0DDDD202DDD42D2DDDD00
:200C200020DDDDD44DDDDDDDDDDDDDDDDDDDDD4D4DDDDDDDBDDB4B4BDDBDDD4BB44444BBFF
:200C40004BDD44449494444BDDAAA44444AAABDDA444444444AABD444A444A444BBD44AAD7
:200C6000A4AAA44AADBAABBBBBAABABDDBBDDDDDBBDBDDDDDDDDDDDDDDDDDDDDDDDDDDDD91
:200C8000DDDDDDDDDDDDDDDD04D0042442442DD2D00D22D22D2D2220042442442D4420DD62
:200CA00022D2DD2D2D20042442442DDDDDDDDDDDDDDDBBBBBBBBBBBBBDDDDDD111DDDDDDB1
:200CC000BDBDD0D2DDBBBD5D7DD333DDB6DDDBDDDDDDDDD8BDDBDDDDDDDDBBBDDDDDDDDD34
:200CE000DDDDDDD9D9999D0D20DDB9B0332D5D75DDD020112D0D20DDD4D1111BBBBBBD14A3
:200D000034024D0D20DDD4D4334D5D75DDD4D4114D2D20DDDDDDDDDDDD57DD7597DD9DD95B
:200D2000999D75DDDDDDD9579D7587DDDDD9999D7567DDDDDD57DDD44DD4D1D4DDDDB444EC
:200D4000D4D6D42DDDBBBDD3D4D3D02DBAAAAADAAAADADD4BBBB11DDDDDDDD4DB04D3438AB
:200D60008D44D4B04DB4664DDDD9B6BBBBBBBDAADAAAAADAAABDDDD4DD11DDDDDDDD4D4D4A
:200D8000D4D61BDDDD4D4DDDD4DBDDDDDDDDDDDDD3DD4DD9DD4DD9DD4DD4DDD4D4DDD4DD96
:200DA000DD4D4DDD4D4DDDBDD4DD9DD4DDBDDD4D4DDD4D4DDDD4DDD4D4DDD4DD4DDADD4DEC
:200DC000DADD4DD4DDD4D4DDD4DDDD4D4DDD4D4DDDBDD4DDADD4DDBDDD4D4DDD4D4DDDD930
:200DE000DDDDDDDDD9DD9DDBDDDDDBDD9DDDDD44DD4DDDDDDBB44DDD4DDDDDBBBBBBBB4470
:200E0000DDDDB84B444BBBB49DBB4BBB8BB474DDDBB46BBBB4D4DDD44444BB442BBD584430
:200E2000DDD43DDDBDD4D4D613BB42BDD4DD043BB4DDBDD44203BB1B4BBDDD4DBDDD4B3B60
:200E4000DDDD3DBDDDDBBBDDDDD9D4D4D4D9DDD4D4DDDDD9DDDDD4D4DD9DD9D99DD4DDD4BB
:200E6000D94DDD9DDDDD44D44D9DDDDD9D4DD44D44DD9D9DD4D9DD94DDDD44D4DDD49DDDDB
:200E8000D944D44D44DDDDDD9DDDD9DDDDD9DDD9DD9BBDDDDD9DDDD9B67DDDDDD9DBBBBB44
:200EA000D5DDD7DD9BB9BDD9DDDD7BD9BB9DD5DDDDBBBBBDD9DDDD6DDBD9BDDD9DDDBDBB7A
:200EC0009D9D6DD9DBBDB9DDDD5DDDDDDDBBBBBBBBD59DDDDDDDDDD67DDDDD6DDDDDDDDDD3
:200EE000DDDDAADAADA4AAADDDDD4DBBDDBADDADDAAABDDDDADAADDADDDDDDDDDDDDDDBB0A
:200F00006DD444BBDDDBBD94DB449DDDBBDDBDD9449DDD4DD494D944BD4DDDD4BDDB449DFD
:200F2000DD4D94BB4B94BD4DDD9D9D99DB9DDD4D4D9DDB4DBD4DBDDDBDD9DD9BBDBDD5BD2D
:200F4000DBD4BBBDBD49DDD9BD9BBDBDBDDDDDDD44BDBBBDDDDDDD449DDDDDD9D9DDDDDD94
:200F60004DDD9DDD9DDD4D4DDBDD9DDBDD4DCDADADDDADADCDCBABABBBABABCDCDADAADA37
:200F8000ADADCDCDDB44B498DDCDCDDD94B44DDDCDCDDD44444DDDCD44DD94A44DD44D442B
:200FA000D6BDDDB6D44D44BBBDDDBBB44D9DDDDDDDDDDD9DDDDD0DDDDDD9DDD44DDDDDD91F
:200FC0009DDDDD57DDDD02DDDDDDDBDDDDBDDADDADD57DD02DADDDDDDDBDDBDD999D4DDDF2
:200FE0005702DD94DDD4DDD9BDDD493D3D4DDBBDD4D39DD3D4D9BDDD999D443DDBBDD3DD21
:20100000DD4444DDDDD44A4D4444DDDDD444444D444DDD444DDDDD444DD9999DDDDD444DB7
:20102000D94DDD4D44499DDDD9994D4A499499D944DD4A4444494944DDDDD444991944DD93
:20104000D4A4444DD9449DA4D449443944DDD4DDD44999DDBDDA444444444ADDBDDD9DDD48
:201060005DDDBDDB9DDDDDDDD9DDDDDDDDDDDDDDDDD4DBDDD4DBDDDD4444444444444D448B
:20108000449A4D94444DDDD444A4DD9D4DBDDD9444D4DDDDDBDA44ADDDDDDD44BA4AAABBB6
:2010A000BBBDDDADDDBBAAB44DD9ADDDDDDDA4DDDDADDDADDDADBD4DADDDDDDDAD4DDD4D3D
:2010C000DDDDDD444DDDABBBBDAD9DDD6DABA4ADAD8DDDBDDDBBBDADDD6DBAADADDDADD4C6
:2010E000DDBB5DAD4BBDD4DDAB5DAD49DDDDDDBB5DADD944444DBB9DADDDD9444DBB4DAD8C
:201100007DDD444DBB44ADDDAAAA1D4444DBBBBBBBBDBB9DDDDDDDDBBDBB9DDDDDDDDB9DAB
:20112000BBBBBBBDDDD4CDBBBBBBB9DDD4CDBB999B99DDD4CDBB4D2BD44444CDBB4D2BD472
:2011400044CCCDBB4D337D54CCCDBB4DDDD1D4CCCDBB45175D24CCCDBB25D75324CCCDB43E
:201160004DDDD6D4CCCDB44D66DDD4CCCDB94DDDDDD4449D6944DDDDD4449DBDBDBDBDBD0F
:20118000BDBD44B444B444B44DBDBDBDBDBDBDBDBC9CBC9CBC9CBDBDBDBDBDBDBDBD44B48D
:2011A00044B444B44DBDBDBDBDBDBDBD9C9CBC9CBC9C9DBDBDBDBDBDBDBD44B444B444B42F
:2011C0004DBDBDBDBDBDBDBDBC9CBDDDBC9CBDADADBDDDBDADADDDDDDDADDDDDDDD49DDD5C
:2011E000ADDD94DDDBADDDADDDABDDDDDBDDADDBDDDDD44DBDADBD44DD944DDD4DDD444DC4
:20120000494449B94449DDBD4444444444BD4DDDBD4DBDDD4D4DDBDDBDDBDD4D4BADDDADA3
:20122000DDAB4D449DDAAADD944D44DDDADA4DD44DDBBBBBBBBBBBDDBCCCCCCCCCCCBCCCD4
:20124000BBBBBBBBBCCCCBB4444444BBCDCB44BBBBB44BCDCB4BBDDDBB4BCDCB4BDD9DDB08
:201260004BCDCB4BD032DB4BCDCB4BD0D2DB4BCDCB4BD4B4DB4BCDCB4BDDDDDB4BCDCB4B36
:20128000DDDDDB4B9D9B4BDDDDDB4B9DDBBBBB65DDDDDD6DDAAADAAABBBDDDDADACABABB64
:2012A000BDCDDDDA4BBBBBBDCCD9DA4ABBBABBCCDDDC4ABABBDDCC9DDA4ABBBDDDCCDDDAF0
:2012C0004ABBAD9DCCDD9A4AB94DBDCCDDDA4ABB4DBD44D9DB4BBB4DBD44DDDDDDBB444DAE
:2012E00044DDDDDDBB444DDB6DDBDBDD6BDD6D8D6D9D6D8D6D8464844484648DBD8DDD9D50
:20130000DD8DBD6BDB6DDD6BDB6D8D6D8D9D8D6D8D4484444444844D4B4B49494B4B4DB494
:201320009444B44494BDBDDD9DDD9DDDBDD94444B44449DDDD4B4DDD4B4DDD6DDCDDDDDD1B
:201340009D6DDDD42DDD04DDDDDDD42DDD04DDDDD44D44444D44DD4DD4DD4DD4DD4DD44D10
:2013600044D44D44DDD44D44D44D44DD4D44D4D4D44D4D4D4DD4D4DD4D4DD4D44D4D44D486
:20138000DDDBDBBDBDBBDBDDBDBDDBDBDDBDBDDDDDDDDDDDDDDDAABBDDDDDBBAADDDDDAD73
:2013A000DDADDDDDDDADADADADADDDADADADADADADADADADADADADADAD4444444444444D73
:2013C000494B494B494B4D4B494B494B494DD9DB5A0000C35E4444444444444D4D4D4D4DB3
:2013E0004D4D4DBDBDBDBDBDBDBDBDBDBDDDBDBDBDBDBDDDDDDDBDBDDBBABDDABBBDDD6B19
:201400006ABBBBBAD99D9BB99B99B9D9DD9BB9DD99B9DDDD9BB8DDDDBA99DD9B66DDDDBDD3
:20142000DADD8B88199D9ADDDD00DD37544AA4DD00D8888DDDDDDDD666D99D99DDDD49D9FA
:20144000DDDDDD944D449DDDDDDDD94D4444DDDDD4444DDDDADDDDDDDDDD88DAAADADAD631
:201460006DDDDDDDDDDDDDDD61DDDDDDDDD83D2222222222222D4444449944444DBDDDDD60
:2014800044DDDDCDBDD99D4499DDCDB44444444444CDBB9DDD3DDD9CCD4BDDBDDDCDDCDDF2
:2014A0004BDDDDDDDDDC4D4B44DDDDD44C4DDDDDDADADDDD6C15031E000000004C31DF3533
:2014C000802F82084C31060018014C3106020000ADABADAA4AABDCADBBABBBBBBBDCCDBA8B
:2014E000ABDDDDABDDCDBACCDDDDAB66CDBA4CAA9AA3883DBD4CDDDDDD444DB84CDDDDAAC9
:20150000444D666CDDDDDD444DDDD7DDD588DDDD7BB7BDB5DBBACD75D75D75D7BACD3333B0
:20152000333333BADDBBDDDADDADBDCD2DAAAADAADAABD2DDDB9BD9B99BDDD9999B99D9917
:20154000CDB48888D94D97BDB4BBDD6949975D844BDDDB488BCDA44BDDDD444BCDA6DDDD02
:20156000DDD6666DD11111D11111DDB111111B1111BD111111B111111D11111B1111B11D05
:201580001111111111111D1111111111111DB11111111111BD1111B11B11111D1111111111
:2015A00011111D1116666666111D111111111D111D11111DDD11111D1BB1DDDDD1BB1DD478
:2015C000DDDADADDDDDDC44444444444DDC4DD9DDD9DD4DD14DDDB4BDDD4DD46D33B3B331E
:2015E000D61DC4DD11411DD44D489B33333B981D41DDBD9DBDD44D4A44443444441D443316
:201600003B3B33344DC4BBDDDDDBB41DC4B4DDDDDB994D64BBDDDDDD024DDDDDDDDDDDDD95
:20162000DD99D9D999D9D99DDDDDDDDDDDDDDD9D999D9D999D9DDDDD93339DDDDDD9DD9D22
:201640003D9DD9DD999D93D39D999DD9DD9DDD9DD9DDDDDD93439DDDDDDDDDDDDDDDDDDD16
:201660009D9D9D9D9D9D9D44DDDDDDD4444D4444DDDDD4444DDDDDDDDDDD4DDDD4AAD9D492
:20168000DDDDDDDDAA4BBBAAD9DDDDDDDBBBAA4DDDD9DDAADBDDDDDDBB4DAA9DDDD4DDBB38
:2016A000B4444449449DD4AAD4444444DD94AABBAABBD4DD44DDBDAABBAA4D44D9BDDDBB0E
:2016C0004D444D444DDDDD444D444DDDDDD4944DDDDDDDDDDDDDDDDDDDD11DDD6DDDD66D33
:2016E0001BB6D1B1DD1BB1BBBB1BBB1DBBBBBBBBBBBBBD9BABBBBBABBBBDBBAAABBBAAAB67
:201700009DBBBBAB9BBBABBDBBBBBBBBBBBBBDBBBBB33BBBBB8D8BBB3DD3BBB8DDD833DD39
:20172000DD333DDDDDDDDDDDDDDDDDDDDADDDDADDDDDAADADAAAADAAADBB444444A4ABAD0D
:20174000BAAAA49444BBBDBB4A44A4AAAABDAA4A4AA44A44DD444B444B4A44AD4AABAAAA44
:201760004B44AD444444A4BBA4ADAA4AA4A4AAA4DDDD4DBBDDBAD4ADDAAABDDDDADAADDAF4
:20178000DDDDDDDDDDDDCCCCCCCCCCCCCDCCCCCCCCCCCCCDCCC4CCCCC4CCCDC4D4D4C4D468
:2017A000D4CDC334DDDDD433CDCCC4149414CCCD9CCCD8D8DCCC9DCCCCD1D1DCCCCDCCCC7A
:2017C000D4D4DCCCCDCCC4DD1DD4CCCDC4C4D888D4C4CDD414DDDDD414DDD3DDDDDDDDD327
:2017E000DDDDDDDDDDDDDDDDB57B57D57D9BBDB57B57C57D9BBDB57B57C57D9BBDB57B5707
:20180000C57D9BBDBBBB57C57BBBBDBDDD9CCC9BBBBDBD6DCC9CCD6BDD9D9DC9D9CD9B9D0C
:20182000DDDDCDDDCDDBDD11DACDDDCADBDD11DDDDDDDDDBBD11DDDDDDDDDBBDDDBB20CCEA
:20184000CCCDDD2B2BB2CC22BBBD2B244BCC242BBD00D42BC0244DBDD2D402D2444DBDD2AB
:201860000DD424004DDDD2BB0442B24BBD90DD2492B24DDDB033D444B2234DB0DD0240229F
:20188000200DBD2D40244DD0DDBD402DDD42D2BDBD40DDDDD44B6DDDDDDDDDDDDDDDDDDDF3
:2018A0004DD4DDDDCDBDDB4BDBDDBDCDDBB33333BB4BCD44111411444BCDDD344444AAABD0
:2018C000DD4444444444AABDD44A449A4444BDA4AAA4AAA44AADBBABBBBBAABA9D4BADDD46
:2018E000DDBADB4D44ADDDDDDA444D444DDDDDD4444DDDBBDDDDDBBDDDD1BBD4D4DBB1DDFF
:20190000D3B1D4D4D1B3DDD6B3DD9DD3DDDDD44D1D4D1D44DDDDDD3D4D3DDDDD61DD1D1D2E
:201920001DD19D84DB4D4D4BD4DDD4BB4D4D4BB4DDD4DD4DDD4DD4DDD4DD4DDD4DD4DDD49C
:20194000DDDDDDDDD4DDDDDDDDDDDDDDDDDDDDDDDDDD4DDDDDDDDDDDD646DDADDDDD4DDDDE
:201960004DDDDD1DDB4B66466DD343DD4DDD4DDDD343BB4BB6466D3343DD4DDD4DDDD1417F
:20198000BB4BB646DDDD4DDD4DDD4DDD33433D4DDD466DDD43DD4DDD4DDD334DDDDDDD4DC8
:2019A000DDDD4DDDDDDD4DDDDDD9D4D4D4D9DDD4D9DDDDD4DDDDD4D4D49D49D99DD4DDD425
:2019C000DDDDDDDDD49D44D44D94DDDD4D4DDD9DD4DD9D9D44D94D44DD414DD4DDDD4DDD9F
:2019E000D434D4444D44DDD4DDDDDD4DD44DDDD4D44DD9DD4D4D44DDDDD49D4D4DD4DDDDC7
:201A0000DD4D4DDDDDDDDDDDDDDD11DD4444DDD44D44DD43443D444D242D43443D024D44B2
:201A20003D43443D044D242D43443D024D443D43443D444D242D43443D224D443D43443D51
:201A4000444D242D44444D224D443DDDDDDD444D242DDDDDDD224D443DDDDDDD444DDDD00A
:201A600042DD9DDDDDDDB44DDDDDD66DDBB4DD66DBBDDDDBBB9DDDDBBBDD6DBBDDDD4DBD5F
:201A80004D4DDDD44D4DD44D44DD444D4DD44DD4DD44DD4DDDDDDDD94DD1334DDDDD44D421
:201AA00044413DDDDD4DDDDD444DBDBDDDDDDDDDDB4D4BD4DDDDDDB44DDD88DDDDDDDDDD8F
:201AC0009DDDD9DDDD69DDDDD9DDD997BBDDD9DDDD8DDDBB5DD8888DDD9DDB5DBBB6DD6DA9
:201AE000975DDD7BB9D99D5757DDDB99D9BBBDDDDDDD98DDBB588DDDDD9DDD9D5DD6DDDDB1
:201B00008DDDDDDD98DDDDDDDDDDD99DDD6666DDDDDDDD6DDD94DDDD49DDDDDDD9BBBDD488
:201B20004DDDDDD4DBBBB44DDDDD4444D6DDDD6D4DDDDD6DDDDB8D4BDDDBBB5DDBBDBBD9F4
:201B4000D4494DDBBDBBD9D4444DDBBDDDD9DD11DDD44DDDD4D4444994DD67D4D3DD3DDDC8
:201B60004D8DD4DDDDD44DDDDDD6DDDDD44DDDDD99DDDDDDDBB1BBBDDDDDDDDDD1BBDDD4D2
:201B8000333339DDDDDDD4333339DDD011117BBB020DD033337BBB020DDDDDD4111119DD67
:201BA000DDDDD4111119DDDDD4DDDDDDDBBDAA44DBBBDAABBDCC44DBBDDCC5BDCCCDDDDD80
:201BC000DCCC4DCCCDDDDDDCCC9DDD44DDDDDDDDDD6DD4DD5DD44DDD46DDDD4BBD4DDDD08B
:201BE000DBBD2BBDD4DDDD2BB9D4D4DD6DDD8602BB4DD4DDBBDD46BBD462DDBB444446446A
:201C00004DDDDD57DD6DDBBDDDDDDDBBD46BBDDD4D4DBBDDD81DDD4D44DDDDDD446D445DDB
:201C2000DDDDDDDBBDDDBBDDDDDDDDDDDDBBAADDDDBBDDD44DAA44DDBBDDD44CCD4499DDCD
:201C4000DDDDDCCDDD99DDDDABDDBBDDDDAADD94DDBBDDDDAADDDDDAAD99DDD44DDDDAADA1
:201C600099DDD44DDD44DDDDAADDDDDD44DDDDAADDDD99DDDDDDDD44DD99DDDDDDDD44DDF3
:201C8000DDDA4DDDDADDDDAADAAAAADADAADDDD4DDDDDADDDDDAAADAAADAAADDDA4DD4DD56
:201CA000D4DDDDDDDAAADAAADAADAADADD4DD4DDDD88D9D889D099DDDDD9D11DD8DDDDD5DB
:201CC00088D88DDDD89DDD44DDDD5DDDDD6DDDDDDD5988DD9966DDDDDDDD6DDDDD11D11D78
:201CE000DDDDD96633D33119DDD0DDDDDDDDD7DD70DDDB4BDDD70DD0DDB4D4BDD7DDD2DD3D
:201D00004ADA4DD0DDD2D4DD1DD4D0DDD5DD4DDD4DD2DD25DDD484DDD25DD5DDDD4DDDD2BB
:201D2000DDD93339D93389DDDDDDDDDDDDDDDD7DD4DDDDD4DD5DD1DDD4D999DDDDD4341421
:201D4000DDD96DDDDDD3D44DDDDDDDD6666DDDDDDD1DD94444DDD97BBD48D4DAADDAAABD8B
:201D600044D49A9DDDDABD94DAAADD4DDADD99DBBBD141DADDD4DBBBDD3DDADDD4DDDDDD09
:201D8000DDD44DDD4DDDDDDDDD4DDD4DDDDDDDDDDDDBBDD1D1DDBBDDBBBD14D41DBBDDDD3E
:201DA000D19DDD91DBDDDD14DDDDD41DDDDDCCCCCCCCCDDDDD34DDDDD43DDDDDD341D143A1
:201DC000DDBD9DDD34143DDBBDD4DDD898DDDD6DDD4DDD4DDD148DDDD4DD4D143DDDBDDD15
:201DE0004DDD3DDDBD9BDDDDDDDDDB9DDD02DDDDD02DDDDD02D4D4D02DDDDD02DDDDD029F5
:201E0000DD4DBD46964DBD4DD9BB3D4D3BBDDD1DBB11911BBDDD4BBB4D3D4BBBDD91116D04
:201E20001D61119DD9DDDD3DDDD9DDDD4DDDDDDD4DDDDDD4DDDDD4DDDDBD1D4DDD4D1DBD04
:201E4000DB3DDDDDDD3BDDDDDDDBBBDDDDD5DDDDB444BDDDDDDDDB44444BDDDDDDB4574541
:201E600074BDDDDD444444444DDDDD244494440DDDDD444444444DADADD4466644DDDDDD47
:201E8000DD44444DDDDDDDD6634366DDDDDD02DDDDD024DDDDDDDDDDDDD4DDB44DDDDDDD59
:201EA00094BDDDDD44DDD4DDDDDDDDDDDDDDD99DAADDAAADD4444DDD4DDDDDDD944D4D94DB
:201EC00044DD6DDD4D4DDD5DDD94DDDDDDDDDAD9DDDDDDDAAAAADAAAAADDDD444DD4444491
:201EE0004D4DDDDD9DDDDDDD44DDDDDDDDDD4D444DDDDDDDD44D4444DDDDDD444DDDDDDDE8
:201F0000DDDDDDD2BBDDDDDD887BBDBBD596DDDD9BBDBDD9BDD97DDBBDDD59BD97DDDDBDCC
:201F2000DDD59DDDB9DDDD7DDDDDD9999D6D57D9DDDDDD8D8D7DD888DD6DDDDDDDDDDDDD19
:201F40008898DDD697DDDDDDDBDDDB8DDDDDDDBB5DDBDDDDDDDDBBBDDDDDADDDDADDDDAA68
:201F6000ADAAAADAAADD44ADADDDDDDBBD4BDDDD9DAAAABD4AAAADADDADDDDDDBADDAADA82
:201F8000DAADADBADBDDDADBDDADBBDAAABABBBDADABBDADDDDDBDADAAADADAADAADDDDA19
:201FA000BDD44DDDDDBADADDDD4AAADDBDDDDDDDDDDDDDDDDDDDDDDDDDDDDDDD4D4DDDDD66
:201FC000DDBDDB4B4BDDBDDD4BB44444BB4BDD44449494444BDDAAA44444AAABDDA44444C5
:201FE0004444AABD444A444A444D4D44AAA4AAA44AADBAABBBBBAABABDDBBDDDDDBBDBDD60
:20200000DDDDDDDDDDDDDD44DDDDDDDDD44DD0D4D4D494D2DD14D4D444D4D41DDDD49DDD5D
:2020200094DDDDDDD4444444D66DDDBBBDDDBBB9DDD1BB11911BB1DDD44444444444DD240F
:20204000111D3D1114DD2DDBDDDDDDDDDD2DB4444444DBBD2BD49DDD94DBBD4DD4D444D4C3
:20206000DBBD44D4D4D4D4DDBDDDDD4DDD4DDDDDDDDD4DDD4DD4DD44DBBD4DBBD4DDDD84D7
:202080008D4DB4DD6DBBB44D8D44DBDDBBDDD111DDDBBD4D44444444DBBD9DD449D94DD689
:2020A000DD4DDDDD4DDDDDDD4448D494DDDD4DBB4D4DDD44D44DBB4DDDDDDD4DBDDB3DDD28
:2020C000DDD9DBBDDDDDD9D4D44DDDD04444D4DDDDDDDBD2D4D44DDDDDDBBDDDDD5D444DEE
:2020E000BBD4449DDDD39DB3338DDDDDDD0D0444D5DDDDDDDDDDD9DD4DD4D4DD94DD4DD97F
:20210000D4D4DD04DD4DDD14D42DD444DDDD8414DDDDDDDDDDD4D0DDD1DDDDDDDDDDDDDD02
:20212000DDD4D4DDDDDDDBDDD4D4DDD4DDDDCDD444DDADDDDDD4DDDDDCDDDD111DADDDBDF6
:20214000DDDD9DDDDBD4DD4ABD9BBDDD9DDDCDCD9DDDDADBDD94AD333D4DDDADDDDDDDDB69
:20216000DDDDDCDDDDDD9DDDDDDD4DDDD4DDDDDDDDD9DDDDDDDDDDDDDDDDDDDDDDDD999B23
:20218000DDD99DDDDD9DD9DDD944DD4444D9DDDD44DD4DB999DDDDDDB94BD4DDDDDDDD9D8A
:2021A0004944DDDDDD4494D9DDDDDDDD4DB49BDDDDDD999BD4DD44DDDD9D4444DD499DDDFB
:2021C0009DD9DDDDD944DDB999DDDDDD499DDDDDDDDDDDD99DDDDD4DDDD44DDDDBDDDDDDEB
:2021E000DDBB6D4BBDDDDDDBBBDDBBBD7DDDD4334D44BD999DD3DD4DBBBDDDDDDD444DDBD0
:20220000DDDDAAADDBDDD4DDD11111DBBD4D4DD33333DBBDDD4DDD411DDBBDDD44DD433DD3
:20222000BBDD4D9DDDDDDDDBDD44DDDDDDD4DDDDDDDDDDDDDDD2DDDDD9DD999B99BDD9B9B5
:20224000BDD66666DDDDD9DDDBDDDBDDDDB9DDDBDDDBDDD9DBBDD8B888DDBDD9DD66B66BFC
:202260001D4DDBDD9DD9DDCDD449DD96B9B6CD4DDBDDBDDBDDCDD4D9DDB9B99BCDDDDDDD0E
:20228000DDDDDDDDDDDDDDDDDDDD4DDDDD6DDDDDDDDDDDDD9DDBDD9DDDDDDDBDD9DD9DDD84
:2022A0004DDD9DD9DDBD4DDDDDBDDBDD9DDD4D9DBBDB9DBD4DDD9D9D99DB9DDD4DDD9DDB20
:2022C000DDBD4DDDDDBDD9DD9DDDDDD5BDDBDDBDDDDDD9DDD9DD9DDDDDBDDDDDDDBDDDDD44
:2022E000DDDDDDDDDDDDDDDDDDDDDDDDDDBABBBBDDDBDDCDBDBDDDABBBBBDDBABBBBDBDBD8
:20230000DBCDBDBDDBABBBBBDDBABBBBDDDBDDCDDDDDDDDDDBDDDD4444444444444DD44D21
:20232000D4DD4DD4ADADD44DDDD44DDDDDDDDDDDDDDDDDD1D2DBDDDD2D1DDDDDDDDDDDDDBA
:20234000DDDDDD88DDDDDDDDDDADDDD888ADDDDDA98DBDDDADDDDDADDD9BDDDDDDD5ADDD6A
:2023600099BDDDDDDDDD9DAAABD9DDDDD99DDD99D7DDD7DBAAAD9DDD5DD9DDB99DDD97DD31
:20238000D99DDB9DDD99DDDDD9DDDDD988DDA6D8DDDDDDDDDDDDDDDDDDDBBBBDDDDDD1DD50
:2023A000DDDDDDDD4444D73333DDDD3334D7BBBB9D8DDDD4DDD1114DD4BBBB9663334DD4F8
:2023C000BBBBBBBDDD4DD4DDDDDDD4444DD4DD99DDD4DD3D042DDDDDD4DDDDDDD6DDDDD446
:2023E000DDDD4DD4DDDDD4BBDDB4D4DDDDD2BBDD4B4DDDDDD2BBDDDDDD44DD4DDDDDDDD4E1
:202400004DDD4DDDDDDDDDDDDD44DDDDD84D444DDDD49DDD4DDD8DD474DDDDD46DDDD4D4B9
:20242000DDD44444DD442DDD5844DDD43DDDDDD4D4D613DD42DDD4DD043DD4DDDDD44203CE
:20244000DD1D4DDDDD4DDDDD4D3D4DDD3DDDDDDDDD4DDDDD4DDDD4DDDDDD994DDDD99DDD5D
:202460009DD44D9444DDDD42D43DDDDDDD4D4DDAAAADAAAD9DDDDB9BDDDDDDDD4D6BBBD455
:20248000DD411D4448DDD4DD44DD434DD414D44DDD941DDD34D4B44D444DDDDDD4BB4D4D45
:2024A000DDDDDDDDBBDDDDDDDDDDDDBBDDDDDDDDDDDDDDDDBBDDD444DDDBBD88DDDD6DDD6B
:2024C000D88DDBDDD4B1DDDBDDBBBD4BBB6DBBBDDBD4DDBDD4DBDDDD6DD7D5DD4DDDD4DAE2
:2024E000AA1DAAA4DD6DDDDD4DDDDD6D44DDDD444DDD4DDDDDDDDDDDDDDD9DDDDDDDDDDD9D
:202500009D99DDDDDDDDD99DDD4DD4D4D4DDDDB444D4D6D44DDDBBBDD3D4D3D02DBBDD4ACA
:20252000AAADDBBDD4444D11DDBBBDDD44D04444488D44D4D04434664DDDD9D6DDDDDDDD80
:20254000AADAAAAADAAADDB9D44D1DDDDDDDBB4DDD4DD614DDBB4DDDDDD3D4DDBD4DDDDDB1
:20256000D1D3FFFFFFFFFFFFFFFFFFFFFFFFFFFF20EFD4F0016078D8A9008D00208D01203D
:20258000A2FF9AAD022010FBA9018D0080EAEAEAEAEAEAEAEAEAEAEAEAEAEAEAA00784018D
:2025A000A000840098910088D0FBC60110F7A9F0A000990002990003C8C8C8C8D0F420D069
:2025C000A6A9008D0120204DA7A200BDA0A69D0002E88AC908D0F4A9008D05208D0520A9E9
:2025E000208D0020204DA7A90F8D1540A9008D0120A900851020A8A6AD1100F0F8291CF082
:20260000F4290CF03C2908D01CE610A510C904D004A9008510AABD9CA68D00028D040220D3
:202620004DA74CE5A5C610A510C9FFD004A9038510AABD9CA68D00028D0402204DA74CE558
:20264000A5EAEAEAEAEAEAEAEAEAEAEAEAEAEAEAEAEAEAEAEAA2FFA0FF20C7A6A2FFA0FF80
:2026600020C7A6A5100AAABD65A68500E8BD65A685016C00006DA680A686A691A6A9038DA0
:20268000AA90EAEAEAA9038DAA90EAEAEA6CFCFF20E3D46CFCFFA9018DAA90EAEAEA6CFCD5
:2026A000FFA9028DAA90EAEAEA6CFCFF2880A0C028FC024028FE0248A200E88E1640CA8EE0
:2026C0001640A208AD1640A9018510A910851160EAEAEAEAEAEAEAEA88D0FCEACAD0F86089
:2026E000A9208D0620A9008D0620A9008500A9AA8501A000B100C9FFF00C8D0720E600D07C
:2027000002E6014CE4A6A200AD0220A93F8D0620A9008D0620BD2DA78D0720E88AC910D032
:20272000F4A200AD0220A93F8D0620A9108D0620BD3DA78D0720E88AC910D0F4600F133116
:20274000010F0B2B300F2717640F3B1C640F1331010F0B2B300F2717640F3B1C64AD022075
:2027600010FBAD022030FBA9008D0320A9028D1440AD022010FBAD022030FBA9008D032042
:20278000A9028D14402080A7A0FFA2FF20C7A66060EAEAEAEAEAEAEAEAEAEAEAEAEAEAEA23
:2027A000EAEAEAEA60FFFFFFFFFFFFFFFFFFFFFFFFFFFFFFFFFFFFFFFFFFFFFFFFFFFFFF2C
:2027C000FFFFFFFFFFFFFFFFFFFFFFFFFFFFFFFFFFFFFFFFFFFFFFFFFFFFFFFFFFFFFFFF19
:2027E000FFFFFFFFFFFFFFFFFFFFFFFFFFFFFFFFFFFFFFFFFFFFFFFFFFFFFFFFFFFFFFFFF9
:20280000FFFFFFFFFFFFFFFFFFFFFFFFFFFFFFFFDDDDDDDDDDDDDDADDDDD9DDDDDADEEEE76
:20282000EEEEEEEEEEEEEEEEEEEEEEEEEEEEEEEEEEEEEEEEEEEEEEEEEEEEEEEEEEEEEEEED8
:20284000EEEEEEEEEEEEEEEEEEEEEEEEEEEEEEBDDDDDDDDDDDBDBBDDDDDDDDDBBD9BBDDDBF
:20286000DDDDBB9D99BBDDDDDBB99DFFFFFFFFFFFFFFFFFFFFFFFFFFFFFFFFFFFFFFFFFF1C
:20288000FFFFFFFFFFFFFFFFFFFFFFFFFFFFFFFFFFFFFFFFFFFFFFFFFFFFFFFFFFFFFFFF58
:2028A000FFFFFFFFFFFFFFFFFFFFFFFFFFFFFFFFFFFFFFFFFFFFFFFFFFFFFFFFFFFFFFFF38
:2028C000FFFFFFFFFFFFFFFFFFFFFFFFFFFFFFFFFFFFFFFFFFFFFFFFFFFFFFFFFFFFFFFF18
:2028E000FFFFFFFFFFFFFFFFFFFFFFFFFFFFFFFFFFFFFFFFFFFFFFFFFFFFFFFFFFFFFFFFF8
:20290000FFFFFFFFFFFFFFFFFFFFFFFFFFFFFFFF4C05A9FFFFBD7AE49590BD7CE495984CF9
:2029200015A9FFFFFFA900956FA9F095A04C25A9FFFFFFFFFFB498B590AAA90F200BD860F6
:20294000FFFFFFFFFFFFFFFFFFFFFFFFFFFFFFFFFFFFFFFFFFFFFFFFFFFFFFFFFFFFFFFF97
:20296000FFFFFFFFFFFFFFFFFFFFFFFFFFFFFFFFFFFFFFFFFFFFFFFFFFFFFFFFFFFFFFFF77
:20298000FFFFFFFFFFFFFFFFFFFFFFFFFFFFFFFFFFFFFFFFFFFFFFFFFFFFFFFFFFFFFFFF57
:2029A000FFFFFFFFFFFFFFFFFFFFFFFFFFFFFFFFFFFFFFFFFFFFFFFFFFFFFFFFFFFFFFFF37
:2029C000FFFFFFFFFFFFFFFFFFFFFFFFFFFFFFFFFFFFFFFFFFFFFFFFFFFFFFFFFFFFFFFF17
:2029E000FFFFFFFFFFFFFFFFFFFFFFFFFFFFFFFFFFFFFFFFFFFFFFFFFFFFFFFFFFFFFFFFF7
:202A0000FFFFFFFFFFFFFFFFFFFFFFFFFFFFFFFF00000000000000000000000000000000C6
:202A2000000000000000000000000000000000000000000000000000000000000000000096
:202A4000000000000000000000000000000000000000000000000001020202020202020265
:202A600002020202020203000000000000000000000000000000040500000000000000003E
:202A8000000000000000060700000000000000000000000000000800000000090A0B000003
:202AA000000C0D0E0000000F000000000000000000000000000008000000001011120000A5
:202AC000001314150000000F0000000000000000000000000000080000000016171800005E
:202AE00000191A1B0000000F00000000000000000000000000001C1D0000001E1F200000E3
:202B00000021220000002324000000000000000000000000000000252626262626262626D6
:202B200026262626262627000000000000000000000000000000000000000000000000008A
:202B4000000000000000000000000000000000000000000000000000000000000000000075
:202B600000000000000000000000000000000000000000000000000000002829002A2B00AF
:202B80002C2D002E2F00000000000000000000000000000000000000300031320033340085
:202BA00035360037380039000000000000000000000000000000003A3B000000000000008D
:202BC0000000000000003C3D00000000000000000000000000003E3F4000000000000000BF
:202BE0000000000000004142430000000000000000000000000044000000000000000000CB
:202C0000000000000000000045000000000000000000000000004600000000494A4B4C4DB2
:202C20004E4F50000000000051000000000000000000000000005200000000555657585951
:202C40005A5B5C00000000005D000000000000000000000000005E000000000000000000A8
:202C600000000000000000005F000000000000000000000000006000000000000000000095
:202C8000000000000000000061000000000000000000000000006200000000636465666778
:202CA00068696A00000000006B000000000000000000000000006C000000006D6E6F7071D7
:202CC0007273740000000000750000000000000000000000000076000000000000000000B0
:202CE0000000000000000000770000000000000000000000000078000000000000000000E5
:202D0000000000000000000079000000000000000000000000007A000000004B4C007B7C32
:202D2000007D7E00000000007F0000000000000000000000000080000000008158008283BB
:202D400000848500000000008600000000000000000000000000870000000000000000005D
:202D600000000000000000008800000000000000000000000000898A8B8A8C8D8E8F90914C
:202D8000929394959697989799000000000000000000000000009A0000009B9C000000001F
:202DA00000000000000000009D0000000000000000000000000000000000000000B0B1B164
:202DC000B20000000000000000000000000000000000000000000000000044115500000097
:202DE0000000000000000000008822000088200000880E0F0F00220000880C0F0F002200D7
:202E00000088ACAFAFA022000008080501000200FFFFFFFFFFFFFFFFFFFFFFFFFFFFFFFF56
:202E2000FFFFFFFFFFFFFFFFFFFFFFFFFFFFFFFFFFFFFFFFFFFFFFFFFFFFFFFFFFFFFFFFB2
:202E4000FFFFFFFFFFFFFFFFFFFFFFFFFFFFFFFFFFFFFFFFFFFFFFFFFFFFFFFFFFFFFFFF92
:202E6000FFFFFFFFFFFFFFFFFFFFFFFFFFFFFFFFFFFFFFFFFFFFFFFFFFFFFFFFFFFFFFFF72
:202E8000FFFFFFFFFFFFFFFFFFFFFFFFFFFFFFFFFFFFFFFFFFFFFFFFFFFFFFFFFFFFFFFF52
:202EA000FFFFFFFFFFFFFFFFFFFFFFFFFFFFFFFFFFFFFFFFFFFFFFFFFFFFFFFFFFFFFFFF32
:202EC000FFFFFFFFFFFFFFFFFFFFFFFFFFFFFFFFFFFFFFFFFFFFFFFFFFFFFFFFFFFFFFFF12
:202EE000FFFFFFFFFFFFFFFFFFFFFFFFFFFFFFFFFFFFFFFFFFFFFFFFFFFFFFFFFFFFFFFFF2
:202F0000FFFFFFFFFFFFFFFFFFFFFFFFFFFFFFFF48A9008D0080EAEAEAEAEAEAEAEAEAEA9F
:202F2000EAEAEAEAEAEAEAEAEAEAEAEAEAEAEAEAEAEAEAEAEAEAEAEAEAEAEAEAEAEAEAEA51
:202F4000EAEAEAEAEAEAEAEAEAEAEAEAEAEAEAEAEAEAEAEAEAEAEA68A900AA9D00049D0072
:202F6000059D00069D0007E8D0F160FFFFFFFFFFFFFFFFFFFFFFFFFFFFFFFFFFFFFFFFFF11
:202F8000FFFFFFFFFFFFFFFFFFFFFFFFFFFFFFFFFFFFFFFFFFFFFFFFFFFFFFFFFFFFFFFF51
:202FA000FFFFFFFFFFFFFFFFFFFFFFFFFFFFFFFFFFFFFFFFFFFFFFFFFFFFFFFFFFFFFFFF31
:202FC000FFFFFFFFFFFFFFFFFFFFFFFFFFFFFFFFFFFFFFFFFFFFFFFFFFFFFFFFFFFFFFFF11
:202FE000FFFFFFFFFFFFFFFFFFFFFFFFFFFFFFFFFFFFFFFFFFFFFFFFFFFFFFFFFFFFFFFFF1
:20300000FFFFFFFFFFFFFFFFFFFFFFFFFFFFFFFF48A58EF004684C76EF68C9FFD00BA9A8DC
:203020008512A90085114C7DB0A546290FC90690034C5BB0A585C924900638E9234C26B052
:203040008500A9808512A9008511A546290FC903900338E903AACA300FA51218690C8512B8
:20306000A97120AAD74C46B04C71B0A585C96A900638E9694C5DB08500A9808512A900859D
:2030800011C600F008A95B20AAD74C71B0A900855AA5118513A5128514A910855720F6D8A6
:2030A000A9108556A55A4AA8A55A2901F007B113290F4CABB0B1134A4A4A4AA656A45720C5
:2030C0000BD8A900850CE65AA5561869108556C9E0D0D1E65AA5571869108557C9E0D0BD03
:2030E00060AAD094984AA8A5459967AAA5449966AA4CE8A048A9800D65AA8D65AA68297FA5
:203100000D74AA8D74AAD0E9F09C2080A14C839FA9008D7E018D7F0160AABD1F9D48BD1E7D
:203120009D4860AE5DAABD0002C98DF006E88E5DAAC9AC602093A1F0FAC9A0F0F760A900A1
:20314000A01699BAB588D0FA60A9008544854520A4A108C9A4F03C284CCEA120A4A1D0069F
:20316000A644A545186038E9B03021C90AB01D20FEA16544AAA9006545A820FEA120FEA1B6
:203180008A65448544986545854590CF386006442645602820A4A1F0C538E9B030EEC90A17
:2031A0009008E90730E6C910B0E2A20420FEA1CAD0FA054485444C04A2A5444C95FEA54458
:2031C0004C8BFEAD5EAA0D74AA8D5EAA602C74AA500320C89FA9704D74AA2D5EAA8D5EAAD3
:2031E00060A9008DB3AAA544482016A3688D57AA4CD4A7A90520AAA22064A7A000989140C7
:2032000060A907D002A90820AAA24CEAA2A90CD0A546290FC903B010204DD42907A8B94091
:20322000B215A895A84C12E5204DD42907A8B948B215A895A84C12E5A9018D63AAAD6CAA8F
:20324000D00AAD6DAAD005A9018D6CAAAD6CAA8DE0C0A080C0808080E0C0A080E0A0A0A0DE
:20326000C8A68541A54485402043A7204EA7201AA7AD63AA8DBBB54CA8A6AD75AAC9A0F0F6
:20328000252064A7B03A20FCA24CEAA220AFA7D005A9008DB3AAA000989140204EA7A902B7
:2032A0008DBBB54CA8A62092A7D005209AA7F01020AFA7F0F620AAA7F0F120FCA24C16A377
:2032C00060A9092D65AAC909F0034C00A0A90420D5A3AD73AAAC72AA20E0A3AD6DAAAC6C99
:2032E000AA20E0A3AD73AAAC72AA4CFFA320A8A2A97F2DC2B5C904F0034CD0A6A90420D5A7
:20330000A3207AA4AAAD65AA2901D0068E72AA8CA54630034C25BBB5B04A4C14BBA4205DFB
:20332000A32051A86C72AAADB6AAF020A5D610034CCCA6A90220D5A338A5AFE567A8A5B0C8
:20334000E56820E0A3A568A4674CFFA3A90120D5A338A54CE5CAA8A54DE5CB20E0A3A5CB00
:20336000A4CA4CFFA38DC2B54820A8A2684CC4A78CC1B58CC3B58DC2B5A9048DBBB5A901BE
:203380008DBCB520A8A6ADC2B58DC3B54CA8A68CC3B58DC4B5A9024C86B620A8A64CEAA27B
:2033A0004CD0A62016A320A8A2A9232DC2B5F0F08DC2B5ADB6AAF028A90220B1A4207AA431
:2033C000186567AA986568C574B07085B0856A86AF8669A667A4682071A42051A86C609D89
:2033E000A90120B1A4207AA438A54CED60AAAAA54DED61AA9045A8C44B9040F03E84CB865D
:20340000CA8EC3B58CC4B54C0AA4AD0A9D8DC3B500010203C4B5A9008DC2B5A9028DC1B5AA
:20342000A9038DBBB5A9028DBCB520A8A6AD61AA8DC2B5A8AD60AA8DC1B56020EAA24CCC8A
:20344000A6CDC2B5F01AAE5FAA8E62AA4AF0034C9EA5A21DBD75AA9D93AACA10F74C7AA5AA
:2034600060ADB6AAF0038DB7AA2013A420C89F2051A86C589DA54A85CCA54B85CD6C569D45
:203480002016A420C89F2051A86C569D2065D6853385D84CD2D720650E853385D84CD40F17
:2034A0002026A5A9058D52AA4C839F2026A5A9018D51AA4C839F2064A7900620A3A24C344B
:2034C000A5204EA7AD65AA2906F013A203BD6EAA9DBDB5CA10F7A90A8DBBB520A8A660A9C3
:2034E000402D65AAF005AD66AAD005A9FE8D66AAAD0D9D8DBCB5A90B20AAA24C97A3A906DB
:2035000020AAA2ADBFB58D66AA60A94C20B2A5F0A99AC99AF0034C30EF682073DA604C0040
:20352000B301918BEAA200A92051AA8DEA4C00B320B2A5F005A9014CD2A6A9008DB7AA4C38
:20354000849DCD00E0F00E8D80C0CD00E0F0068D81C0CD00E06020A3A2AD4FAA8DB4AAADB1
:2035600050AA8DB5AAAD75AA8DB3AAD00E2064A7900620A3A24CEBA5204EA7AD65AA2904D1
:20358000F01BAD6EAAD008AE6FAAF011CE6FAACE6EAA208CA6F038C98DD0F7F0E560205EA4
:2035A000A6B066AD5CAA8DC3B5A9048DBBB5A9018DBCB54CA8A6205EA6B04EA9068D52AA51
:2035C000208CA6D00F20FCA2A903CD52AAF0CEA9054CD2A6C9E09002297F8D5CAAAE5AAA2F
:2035E000F009CABD000209809D00024CB39F48ADB6AAF00EA676E8F00DA633E0DDF007683A
:203600001860A5D930F968386020FCA2205BA74CA9E58512A9EF8511A206A00120B3D6A971
:20362000B78512A9008511A209A00320B3D6A9E58512A9EF8511A206A00420B3D6A9E585AB
:2036400012A9EF8511A206A01920B3D6A9B78512A9108511A20AA01B20B3D6A9E58512A9FC
:20366000EF8511A206A01C20B3D620F6D860FFFF2079C5A58E490160AA2002A720C89F2017
:20368000A58ED017A9E88514A5460A900318690E0A0A186940851320D2D860A9B78514A59A
:2036A000460A900318690E0A0A186920851320D2D860AA8DC0B5AD6AAA8DC1B5AD069D8DD4
:2036C000C3B5AD079D8DC4B5A5408D4FAAA5418D50AA60A01DB975AA91408810F860A01ECF
:2036E000B14099A9B5C8C026D0F660A0008C51AA8C52AA60A90085452092A74C73A7209A13
:20370000A7F01D20AAA7D00AA5408544A5418545787A2020797B20207C7E20207D7FFFFFB2
:20372000402059695369202031393934FFFFFFFF2054414E4B3135FF2054414E4B3136FF31
:203740002054414E4B3137FF2054414E4B3138FF2054414E4B3139FF2054414E4B3230FF98
:203760002054414E4B3231FFAC54414E4B3232FFAC54414E4B3233FFAC54414E4B3234FFDF
:20378000AC54414E4B3235FFAC54414E4B3236FFAC54414E4B3237FFAC54414E4B3238FF23
:2037A0002424242424246CFF1878D828183895A0A90095A8E002B011BD7AE49590BD7CE4CB
:2037C0009598A900956F4CECB7E66AA56AC903D004A900856A48A546290FA8B990B7C5852C
:2037E000900E68A8B974E49590B977E49598D00C68A8B998B79590B99BB79598A9F095A085
:20380000B498B590AAA90F200BD86048A8B94698AD00008D0000EAEA20F6D8A9D38512A913
:20382000638511A21DA00320B3D6A96E8560A57F2013DAA036A2192034D9A00320DDD6A97A
:20384000008560AD00008D0000EA60FFFFFFFFFF856BAD7A018553AD7C018554A9FF85558F
:20386000EAA9008512A9538511A21DA00820B3D6A58FC902F004A583F01DAD7B018553ADA6
:203880007D018554A9FF8555A9008512A9538511A21DA00D20B3D6608D7A018D7B018D7CEE
:2038A000018D7D01A9058D7E018D7F0160FFFFFFB5082901F00DA546100FBD7E01F0104C62
:2038C00090B9EAB5062902F0034C36E14C5DE1B5A02903A8B970E40A0A0A8559B970E41898
:2038E00075988557B96CE40A0A0A8558B96CE41875908556186558186559206EDDAAA5571E
:203900001865581865592076DDA82050B9B111C911B00D48A65ABD7A01205BB9689D7A012B
:20392000A55618655838E559206EDDAAA55718655938E5582076DDA82050B9B111C911B055
:203940000D48A65ABD7C01205BB9689D7C014C5DE14D45204D49534D415443C8492F4F2029
:203960002013D7864784482009D76048A8B972B98504A647A4482012D668A0002084D7A6DD
:203980005A600000000000000000000000000000000003FFFFFFFFFFFFFFFFFFFFFFFFFF77
:2039A000B5A01047C9E0B043B5CCF014B5D4D03BB5CC95D4B5B895C0B5C295CAB5D695DE26
:2039C000A9018D0F03B5A02903A8094095CCB96CE40A0A0A18759095B8B970E40A0A0A18F7
:2039E000759895C2A90595D6DE7E014C5DE1FFFFA45BB9D6002904F0034CF2E7D6A8A9016A
:203A00008D0E034C2DE8FFFFFFFFFFFFFFFFFFFFA65AB5D62904D018A9278568A9018D0B12
:203A2000038D07032008CCA65AA93395CC4C09E7B5CC490295CC68684C8BE6FFFFFFFFFFCA
:203A4000A65AB5D62904D005B1114C12EAB111C911D004A93395CC4C09E7FFFFFFFFFFFFEC
:203A6000AD7A018553AD7C018554A9FF8555EAA9008512A9538511A21DA00820B3D6A9D379
:203A80008512A9B38511A21DA00920B3D6AD7E012013DAA219A0362034D9A00920DDD6A574
:203AA0008FC902F004A583F03EAD7B018553AD7D018554A9FF8555A9008512A9538511A267
:203AC0001DA00D20B3D6A9D38512A9B38511A21DA00E20B3D6AD7F012013DAA219A036206D
:203AE00034D9A00E20DDD6A9008560856B60FFFFB5CCF00160B5A02903A8094095CCB96C92
:203B0000E40A0A0A18759095B8B970E40A0A0A18759895C2B5A82908F007A90395D64C3179
:203B2000BB4C0EB54A4AC91FB0F0C90F9007A90195D64C31BBB5A829F0C9C0F0F1A90095C5
:203B4000D618B5B06908B00295B060FFFFFFFFFF48B5A829F08553B5B0290718655385537C
:203B6000B498B590AA4C00B5DA60FFFFFFFFFFFFA9018D0903204DD429032002E9858620EF
:203B80004DD429032002E98587A9FF8588A90085622072E9A562D0DD204DD4C9099004E9BD
:203BA00009B0F8A820F3C58588A9008562A65AA45B60FFFFFFFFFF000102030405060708B9
:203BC000000102030304050607FFFFFFFFFFFFFFE0D3B8E3BBFDFFC522FE78FE13C6A7FEEF
:203BE000E0BBB8E3BBFDFFC522FE78FE13C6A7FEE00290016018BD7E0169019D7E0160FFF3
:203C0000A65AB5D62904D005B1114C12EAB111C911D022B5CC2903D0188A2901D004A901B8
:203C2000D002A90315CC95CC18B5C2690895C2D004A93395CC4C09E7A01220B3D6A9D3AA9F
:203C4000A902A002918BEAB5D62904F004A9A5D002A9B18553A900A000918BEA60112233FE
:203C600020202020202020402031393934202020202020FFFFFFFFFF54454C693838383844
:203C80003838FFB3D005A9008D9EB32028ABAE9CB3BDC8B4297F0D9EB39DC8B42037B04C0B
:203CA0007FB32000B34C7FB32028AB20B6B0B0EFEEE4B5D0F6EEE5B54C1BAD2028ABAE9C43
:203CC000B3BDC8B410034C7BB3AE9CB3BDC6B48DD1B59DE6B4A9FF9DC6B4BCC7B48CD2B5E4
:203CE0002037B018205EAFB02A200CAFA00C8C9CB3B142300BF00948C8B142A8682089ADAC
:203D0000AC9CB3C8C8D0E7ADD3B5ACD4B52089AD38B0D120FBAF4C7FB33820DDB2A900A26E
:203D2000059DF0B5CA10FA6020DCABA9FF8DF9B520F7AFA9168D9DB3202FAE202FAEA20B75
:203D4000BDAFB320EDFDCA10F78645ADF6B785442042AE202FAE202FAE182011B0B05DA2C9
:203D6000008E9CB3BDC6B4F053304AA0A0BDC8B41002A0AA9820EDFDBDC8B4297FA0070A69
:203D80000AB00388D0FAB9A7B320EDFDA9A020EDFDBDE7B48544BDE8B485452042AEA9A007
:203DA00020EDFDE8E8E8A01DBDC6B420EDFDE88810F6202FAE2030B290A7B09E4C7FB3A922
:203DC0008D20EDFDCE9DB3D008200CFDA9158D9DB360A002A90048A544D9A4B39012F9A447
:203DE000B38544A545E9008545686900484C47AE6809B020EDFD8810DB602008AFA0008C4F
:203E0000C5B5B14299D1B5C8C02DD0F618602008AFA000B9D1B59142C8C02DD0F66020DCC3
:203E2000ABA9042058B0ADF9B549FF8DC1B3A9118DEBB3A9018DECB3A238A9009DBBB3E82D
:203E4000D0FAA20CE08CF014A003B9A0B39DF3B3E88810F6E044D0ECA248D0E820FBAFA224
:203E6000008A9DBBB4E8D0FA2045B0A911ACF0B388888DECB78DBCB48CBDB4C88CEDB7A901
:203E8000022058B0ACBDB4883005D0EC98F0E620C2B7204AB74C7FB3A200F006A202D002AE
:203EA000A204BDC7B58542BDC8B58543602CD5B570016020E4AFA9022052B0A9BF2DD5B5D4
:203EC0008DD5B560ADD5B5300160204BAFA9022052B0A97F2DD5B58DD5B560ADC9B58DF0BE
:203EE000B7ADCAB58DF1B7AED3B5ACD4B560082034AF204BAF200CAF28B009AED1B5ACD24C
:203F0000B54CB5AFA001B142F008AAC8B142A84CB5AFADBBB5C904F00238602044B2A002C7
:203F200091424888ADF1B5914248203AAF20D6B7A005ADDEB59142C8ADDFB5914268AA68AC
:203F4000A8A902D002A9018ED3B58CD4B52052B0A005B1428DDCB5186DDAB58DDEB5C8B1E2
:203F6000428DDDB56DDBB58DDFB5186020E4AFA9014C52B0ACCBB5ADCCB58CF0B78DF1B7DD
:203F8000AED6B5ACD7B560A901D002A902ACC3AA8CF0B7ACC4AA8CF1B7AEFAB5A0004C52F4
:203FA000B0082045B028B008ACBDB3AEBCB3D00AAEBCB4D0023860ACBDB48E97B38C98B3ED
:203FC000A9012052B018602045B0AE97B3AC98B3A9024C52B0ADC5AA8DF0B7ADC6AA8DF1B5
:203FE000B7608EECB78CEDB78DF4B7C902D0060DD5B58DD5B5ADF9B549FF8DEBB7ADF7B597
:204000008DE9B7ADF8B58DEAB7ADE2B58DF2B7AD434F50595249474820FED9A9AB854660E9
:204020002067D4A546209CC460A58FC902F012B5082901D006B5062902F0034C36E14C5DB7
:20404000E1B5082903F0F74C36E1A500C964900838E964E6394C3CC0C90A900838E90AE67A
:204060003A4C48C0853B60492048594F55444F554A554E4B4F204F5A415741202020202033
:2040800078A9108D0020D8A202AD022010FBA9068D0120CAD0F3A26F9A2091D4A900854F55
:2040A00085502010C0207FD1A900854B206AD120ABC720C0C920B5C3201DC44C9CC0A54B8B
:2040C000D00C2070D420B0C920B4D72067D42013E4A9108590A9188598A98485A0A90085BE
:2040E000A8856E85B08581857B855C854F8550856F8570A54BD00320F5CA20F6D820D2C62F
:2041000020D0C8A50B2910F00320A6DEA50629F0D03CA5082901F018A581D005E6814C44C6
:20412000C1E65CA55CC90ED02BA900855C4C44C1A5082902F018A581D005E6814C44C1C675
:204140005CA55CC9FFD00DA90D855C4C44C1A5062903F00320C6C6A5082908D0034CEAC058
:20416000A920856EE64B4CA2C020F6D82051EAA91C8505A900854F8550856DA904854D2029
:2041800090CC2091CAA54CD04CA5082908D046A5082901D00CA5062901F019A50B2907D006
:2041A00013A900850B20F2E9EAC933D0D5A90185854C72C1A5082902D00CA5062902F0C2BE
:2041C000A50B2907D0BCA900850BC685D0B42027C6EA4C72C1A9018D01038D02038D030395
:2041E000A54BD00E20B0C9A5852000B020F5CA4CE5C1205DCBA900850C2027CC20B2CCA9B1
:2042000000854D20F6D82031C320F6D8A56DD00320E6C2203BE220D8E020A6DEA508290898
:20422000F009A901456D856D8D000320F9C82028C7F0D6A900850A850B8D11038D1203AD39
:204240000801F004A9FE850A20F6D820A2C220E6C2203BE220A6DE20D8E0201DC3A50AC9C0
:2042600002D0E52051EA20D4CCE685A585C9FFD004A9018585A551186552F017A568C98065
:20428000D0114C64FD186552F009A568C980D0034C59C120D9C5207DD998F006204BC42028
:2042A00095C24C95C02070D4207ED420B4D72067D460A568C980F00AA9008506850785082D
:2042C000850960A21520FED9A21D20FED920C9E3A90085668567854CA54630032000B12060
:2042E00046FDEA85518552856AA583D004A9008552A9018585602081E12075DB20F1DB2067
:20430000FAE1202EE020A9E2207CE22022E12062E12048DB2004E62010E9200CE72072E9F1
:204320002072C9200BDB20C8C74CADFE60A50B293FF009C920D009A901854D60A902854DEA
:20434000602009E42013E4A9F08D0601A9008D0801A551F005A20020A0B7A552F005A201DA
:2043600020A0B7A914857F8580A900EAEA850A854B8545856F85708589858A858285868DB5
:204380000001856A201EC72000B820F6D82030C82059C8EAEAEAA9808568A9018D12038564
:2043A0004CA585C90C9005A900858460A90C38E5858584204DD4C5849004E584B0F8AABD15
:2043C0009DC5858460A901856DA900854D20BDC2A9038552A900854F8550850A850B20B098
:2043E000C9A9FF85852000B0A91E8585A902858F2070D4A21A8656A046845720D8E3EAEA76
:20440000EAEAEAEAEAEAA23C8656A0788457A9E58514A9E0851320D2D820B4D72067D4203B
:2044200031C320F5CA20F6D8A905856C6020F6D8A508290CD0192042C620E6C2203BE220B6
:20444000A6DE20D8E02028C7F0E3A900850C606868A900850C206AD14CA2C02070D4A91C48
:204460008505A900854F8550207ED4A2108656A0328457A9D28514A9B5851320D2D820516E
:20448000D920B4D72067D4A900850AA9018D15038D16038D170320F6D8A50B290318690519
:2044A000854DAD1503D0EFA900854D60C9ABF00160A90085462070D4A91C8505A900854F62
:2044C0008550207ED420B4D72067D42000B6A900858EA940854BA9008583854AA9E885129C
:2044E000A54B8511186908854BA54A186908A8A20720B3D620F6D8E64AA54AC90E90DDA971
:2045000020854BA9008583854AA9B78512A54B8511186908854BA54A186908A8A21120B3AF
:20452000D620F6D8E64AA54AC90E90DDA9D38512A9B385112027FDA5062920F0182079C5B1
:20454000E646A546C907D002A980C987D002A90085464C1CC5A5062910F0182079C5C64660
:20456000A546C9FFD002A986C97FD002A90685464C1CC5A50629C0F0092060B6EA858E4CBA
:204580001CC5A5082908F0AF60A900850B20F6D8A50B290FD0F7A9018D0D03A9E88512A96F
:2045A000B285112027FD60A90060A9006003080D12171C21262B30353A80A0C0E0020001CC
:2045C0000001000100000000000000000000000404000000000000000040205969536920D3
:2045E0002031393934FFFFFFFF2070D4A91C8505A900854F8550207ED420B4D72067D4202B
:2046000051EA60A5461004B9A7BB60B9B0BB60E002B00DA5461009BD78011869209D780171
:204620004CFBFDE002B00DA5461009BD78011869609D78014C9BFEA546290FC906F004A9F2
:2046400032D002A97685856020B40001020303040506A901855AA65AA586F012A562D00E46
:20466000A5868571A587857220A2DD4CA5C6B5A21012C9E0B00EB5928571B59A857220A27B
:20468000DD4CA5C6B5A41012C9E0B00EB5948571B59C857220A2DD4CA5C6B5A31012C9E0A4
:2046A000B00EB5938571B59B857220A2DD4CA5C6A9004CABC62903A8B9C2C6A65A950695B6
:2046C00008B598C9C89006B50829F09508C65A10856013432383A55C290FA690A498200B04
:2046E000D860A50629F0F009E67BA90085814CE5C6A900857BA57BC914F010A50829F0F062
:204700002CA5082051E430254C04C7A90F857BA5062051E4A8B9D5D30A0A0A0A1865908584
:2047200090B9D9D30A0A0A0A186598859860A207A9009573CA10FB60A568F00BA580F01FFF
:20474000A551186552D01BA9708D0501A9F08D0601A9008D0701A9118D0801A900850BA960
:204760000160A90060AD090120E1D9A9308560A9008512A9398511A209A00220DDD6AE09F1
:2047800001B50020E1D9A9008512A9398511A20DA00220DDD6A9008560A5082904F003EE64
:2047A0000901A5082902F003CE0901A5082901F009AD09011869108D090160A900854F853B
:2047C0005020F6D8E64FA508290CD007A54FC9F0D0EF6068684CA2C0A901855A856BA96ED3
:2047E0008560A9D38512A9418511A21DA00720B3D6A58FC902F00BA583D007A900855A4C65
:2048000001C8A9D38512A9418511A21DA00C20B3D6A65AB55138E9011002A9002013DAA098
:2048200036A2192034D9A55A85000A0A1865006907A820DDD6C65A10D84C50BA604C50BA46
:20484000A9D28512A9AB8511A21DA00620B3D6A58FC902F004A583F00FA9D28512A9AE8546
:2048600011A21DA00B20B3D66020F6D8A9D38512A9658511A21DA01720B3D6A9D38512A934
:20488000688511A21DA01820B3D6A96E8560A5852013DAA036A2192034D9A01920DDD6A9D4
:2048A0000085606048290118691DAA684A186903A8602094C8A9D38512A962851120B3D6E2
:2048C000602094C8A9D38512A96B851120B3D660A912855AA55A20A2C8C65AC65A10F5606E
:2048E000A590C9D89004A9D88590A590C918B004A9188590A598C9D89004A9D88598A598CB
:20490000C918B004A918859860A56DF049A50B2910F043A9038504A900856EA264A080A9BD
:20492000178553202BDAA26CA080A9198553202BDAA274A080A91B8553202BDAA27CA08041
:20494000A91D8553202BDAA284A080A91F8553202BDAA920856E60A9038504A900856EAEEE
:204960000501AC0601A9798553207BDAAD0501186910AAAC0601A97D8553207BDAA92085AD
:204980006E60AD0801F038A58FC902F032A50B290FD00ACE0801D005A9F08D0601AD0801F9
:2049A000C90A9018AD0701A8B9D5D3186D05018D0501B9D9D3186D06018D06012047C9608B
:2049C000A90285568557A91A855A855B20CCD760A903854D2045FFA94885902085CAA9834D
:2049E00085A0A900850A85A885B0856F8570854F854AA902855020F6D8A50B2903D006A5A7
:204A0000B0490485B020A6DEA5082904F006E683A900850AA5062920F00DA5082901F00790
:204A2000A91018654A854AA5062980F008A5082902F002C64AA583C9039004A900858320A8
:204A400085CAA50AC90AD005A54BD00160A5082908F0A3A54AC92ED00920A1C468684C922C
:204A6000C0EAA900854D6868A5830AA8B969CA8511B96ACA85126C11006FCA74CA7ECAA97C
:204A8000054C76CAA907856C20B3C24C59C1A907856C4CAEC0A5830A0A0A0A18698B859815
:204AA0006020F6D8A20CA00E20FBD5A60C18691C9D8001E8989D8001E8A9239D8001E8A9EE
:204AC000249D8001E8A9259D8001E8A9269D8001E8A9279D8001E8A9119D8001E8A9119D16
:204AE0008001E8A9FF9D8001E8860CA96E8560A5852013DAA036A20E2034D9A00E20DDD6A6
:204B0000A900856060A9D38512A96D8511A20CA01820B3D6A9D38512A9748511A20CA019AC
:204B200020B3D6A9D38512A97B8511A20CA01A20B3D6A9D38512A9828511A20CA01B20B3DE
:204B4000D6A60CA9239D8001E8A9F39D8001E8A9008DF3079D8001E8ADF40729CC8DF407FE
:204B60009D8001E8A9FF9D8001E8860C60A9D38512A9A58511A20EA01A20B3D6A9D3851272
:204B8000A9A88511A20EA01B20B3D6A60CA9239D8001E8A9F39D8001E8ADF307293F8DF365
:204BA000079D8001E8A9FF9D8001E8860C60A9D38512A9898511A20CA01820B3D6A9D3855D
:204BC00012A9908511A20CA01920B3D6A9D38512A9978511A20CA01A20B3D6A9D38512A92E
:204BE0009E8511A20CA01B20B3D6A60CA9239D8001E8A9F39D8001E8A93F8DF3079D8001BC
:204C0000E8ADF40729CC09338DF4079D8001E8A9FF9D8001E8860C60A9D38512A9AB8511A8
:204C2000A20EA01A20B3D6A9D38512A9AE8511A20EA01B20B3D660A000A9238512A9C085FC
:204C40001120F6D8A60CA5129D8001E8A5119D8001E8B9C007C89D8001E8A9FF9D8001E82E
:204C6000860CA90120AAD7C040D0D660A20020FBD585128411A60CA51218691C9D8001E887
:204C8000A5119D8001E8A000A563D002B1119D8001E8C8C020D0F1A9FF9D8001E8860C600D
:204CA000A9118563A900855720F6D8A457205CCCA91D38E557A8205CCCE657A557C910D090
:204CC000E760A9008563A90F855720F6D8A457205CCCA91D38E557A8205CCCC657A557C92B
:204CE000FFD0E76020F7CEA21E2076D2A573186574186575186576857DA577186578186513
:204D00007918657A857EA900855A20F6D820B8D0A22520FED9A22D20FED9A900855D855E10
:204D200020F6D820B8D0A900857CA65ABDD1D320E1D9A65AB573F010D673E65DA20220BEC2
:204D4000D9A901857C2038D1A65AB577F010D677E65EA20320BED9A901857C2038D1A57C98
:204D6000D0BEA9018D13038D1403EAEAEAEAA016A2052034D9A00920DDD6A201A026203449
:204D8000D9A55A0A18655A18690CA820DDD6A65AA55D2013DAA208A0362034D9A55A0A1875
:204DA000655A18690CA820DDD6A583F03BA01EA2172034D9A00920DDD6A213A02E2034D909
:204DC000A55A0A18655A18690CA820DDD6A65AA55E2013DAA20EA0362034D9A55A0A1865A2
:204DE0005A18690CA820DDD6A2082076D2EAEAEAEAEAEAEAE65AA55AC904F008A214207689
:204E0000D24CFACCA21E2076D2A57D2013DAA036A2082034D9A01720DDD6A583F011A57ED4
:204E20002013DAA036A20E2034D9A01720DDD6A20F2076D2A583D0034CE5CEA568D0034CE9
:204E4000E5CEA57EC57DB055A551F051A90020E1D9A20020BED9A016A2052034D9A00920CF
:204E6000DDD6A036A2012034D9A01A20DDD6A9D38512A9C48511A203A01920B3D6A9D3852E
:204E800012A95E8511A208A01A20B3D6A9018D1B038D1C038D1D032038D14CE5CEA57DC599
:204EA0007EB052A552F04EA90020E1D9A20120BED9A01EA2172034D9A00920DDD6A036A2C8
:204EC000142034D9A01A20DDD6A9D38512A9C48511A216A01920B3D6A9D38512A95E851124
:204EE000A21BA01A20B3D6A9018D1B038D1C038D1D032038D1A2782076D2A90085508560D6
:204F0000856BA900854D6020F6D8A901856BA9248505A900854FA9028550A9308560A90380
:204F2000854D2070D4207ED420D9D020B4D72067D4A9D28512A9BD8511A208A00320B3D6F6
:204F4000A03EA2122034D9A00320DDD6A9D38512A9CB8511A20CA00520B3D6A5852013DACC
:204F6000A036A20E2034D9A00520DDD620F6D8A9D28512A9D98511A203A00720B3D6A01643
:204F8000A2052034D9A00920DDD6A9D38512A9B18511A20EA00C20B3D6A9D38512A9B185C7
:204FA00011A20EA00F20B3D6A9D38512A9B18511A20EA01220B3D6A9D38512A9B18511A225
:204FC0000EA01520B3D6A583F05A20F6D8A9D28512A9E28511A215A00720B3D6A01EA21754
:204FE0002034D9A00920DDD6A9D38512A9B38511A211A00C20B3D6A9D38512A9B38511A254
:2050000011A00F20B3D6A9D38512A9B38511A211A01220B3D6A9D38512A9B38511A211A0BC
:205020001520B3D620F6D8A9D38512A95E8511A208A00C20B3D6A9D38512A95E8511A208BB
:20504000A00F20B3D6A9D38512A95E8511A208A01220B3D6A9D38512A95E8511A208A01534
:2050600020B3D6A583F03F20F6D8A9D38512A95E8511A21AA00C20B3D6A9D38512A95E85E2
:2050800011A21AA00F20B3D6A9D38512A95E8511A21AA01220B3D6A9D38512A95E8511A2D2
:2050A0001AA01520B3D620F6D8A9D38512A9BB8511A20CA01620B3D6A9D38512A9B5851169
:2050C000A206A01720B3D660A9028504A064A9802030D1A07CA9A02030D1A094A9C0203073
:2050E000D1A0ACA9E02030D160A9508DC0078DC1078DC2078DC3078DC8078DC9078DCA0723
:205100008DCD078DCE078DCF07A9A08DC4078DC5078DC6078DC707A90A8DD0078DD1078DB1
:20512000D2078DD5078DD6078DD707A9058DF0078DF1078DF2078DF5078DF6078DF707601D
:205140008553A281207BDA60A568C980D02BA566D00DA517C9029007E651E6664C61D1A582
:2051600083F016A567D012A51FC902900CE652E667A9018D04038D0503602070D4A9038540
:205180004DA91C8505207ED420B4D72067D4602070D4A9248505207ED4A21A8656A02E8484
:2051A000572070B6EAEAEAEAEAEAEAEAA23C8656A0568457A9E58514A9E0851320D2D82045
:2051C000B4D72067D4A9308560A9D28512A9A58511A202A00320B3D6A016A2042034D9A01C
:2051E0000320DDD6A9D28512A9B18511A20BA00320B3D6A03EA20E2034D9A00320DDD6A508
:2052000083F01BA9D28512A9A88511A215A00320B3D6A01EA2172034D9A00320DDD6A90041
:20522000856020F6D8A9D28512A9C68511A20BA01120B3D6A9D28512A9CF8511A20BA013FD
:2052400020B3D6A9D28512A9EB8511A20BA01520B3D620F6D8A9BC8512A9508511A206A09D
:205260001720B3D6A9BC8512A9688511A20BA01920B3D660F6D8A9D38512A9208511A20674
:20528000A01B20B3D66020F6D88A4820B8D068AACAD0F3605752495454454E204259FF40BC
:2052A0002059532031393934FF0000C9CB0000FF43495459FF5E6BFF5F6BFF5813FF5A13F9
:2052C000FF48496BFF484953434F5245FF48496B53434F5245FF3120504C41594552FF3202
:2052E00020504C4159455253FF5E6B504C41594552FF5F6B504C41594552FF434F4E5354BD
:2053000052554354494F4EFFA9048511A9808512A900858DA000A58D5111858D18A511692F
:2053200010851190F1E612D0ED4C13E4D3A9CD858C6048858D68A006B111458D858D8810EE
:20534000F76020FF4F50454E6B5245414348FF69FF14FF47414D45FF4F564552FFA500C99B
:20536000069004E906B0F8604F52494B4FFF505453FF6A6AFF6CFCFF6DFDFF11FF00000070
:20538000000000FF000F0F0F0F00FF000FC8CA0F00FF000FC9CB0F00FF000000000000FF74
:2053A000001010101000FF0010C8CA1000FF0010C9CB1000FFC8CAFFC9CBFFCCCEFFCDCFF1
:2053C000FF5BFF5DFF544F54414CFF5C5C5C5C5C5C5C5CFF424F4E555315FF5354414745A7
:2053E000FF1020304000FF0001FF000100FFFFFFE00290148A48A207B5A80903490495A81D
:20540000CAE001D0F368AA60A90A958960FFFFFF488A48984808A9008D0320A9028D144097
:20542000AD022020FDD8A54D3003200ED5A55009B08D0020A9008D0520A54F8D0520A91E5D
:205440008D01202089D62093DA207EEAE60BA50B293FD002E60A2868A868AA68408A48A5D6
:205460000F0A0A0A38E50F18650AE610A6107500850F68AAA50F6020F5D5A9B08D00206021
:2054800020F6D8A9108D0020A9068D012060EAEAEAEAEAEAEAEAEAEAEAEAEAEAEA2000AF76
:2054A00060A9008560856B850C850D856DA9FF854D2002D5A904850EA920856E207ED420FA
:2054C00093DAA21520FED9A21D20FED92060A5D000A23D2008C0A902853FA9008583A91C5A
:2054E000850520B4D7A924850520B4D720E3D42051EA60A20FBD40C09D1001CA10F760A2F4
:205500000FBD1001DD40C0D006CA10F5A90160A9006020F5D5203ED5A900200ED5600A0ADC
:205520000A0AAAA010A93F8D0620A9008D0620BD65D58D0720E888D0F6A9FF854DA93F8D36
:205540000620A9008D06208D06208D062060A200A010A93F8D06208C0620BD55D58D0720C9
:20556000E888D0F6600F1827380F0A1B3B0F0C10200F0416200F1706000F3C10120F290932
:205580000B0F0010200F1706000F3C12120F29090B0F0010200F1706000F123C120F2909BF
:2055A0000B0F0010200F1616300F3C10160F2909270F0010200F1706000F3C10000F290956
:2055C000000F0010000F0F06000F3C10000F2909000F0010000F1206000F3C10000F29090A
:2055E000000F0010000F0006000F3C10000F2909000F0010000F3006000F3C10000F2909DB
:20560000000F001000AD022010FB60A9008500984A66004A66004A6600488A0500A868096B
:2056200004602035D6A60CA9239D8001E8981869C09D8001E8B9C0079D8001E8A9FF9D802D
:2056400001E8860C60A5042084D62084D62084D68502982902D00F8A2902F005A9F34C623B
:20566000D6A9FC4C62D68A2902F005A93F4C62D6A9CF8501980A29F885008A4A4A18650034
:20568000A8A50149FF25028502B9C0072501050299C007600A0A050460A2018E1640A000B5
:2056A0008C16408400A008BD16402903C901660088D0F4B50649FF25009508A5009506CA52
:2056C00010E16020FBD58514186505A60C9D8001E8989D8001E88513A000B1119D8001E818
:2056E000C9FFF0069113C84CCAD6860C6020FBD5186505A60C9D8001E8989D8001E8A0003A
:20570000B11130031865609D8001E8C9FFF004C84CF0D6860C602013D720FBD58512841103
:20572000A00060984A4A4AA88A4A4A4AAA60864784482006D7A9018500A5482904F0040600
:20574000000600A5472904F002060060A50009F0311160A50049FF31112084D760B111299D
:20576000F0D008A50049FF3111911160A50011112084D760B11129F0D006A5001111911174
:2057800060A5121865058D0620A5118D0620B1118D07206091118647A60CA51218691C9D6C
:2057A0008001E8A5119D8001E8B1119D8001E8A9FF9D8001E8860CA64760186511851190BB
:2057C00002E61260A9008511A8A90485122071D7A90120AAD7A512C908D0F260A200A9118B
:2057E0009D00049D00059D00069D0007E8D0F1A900A2C09D0007E8D0FAA656A45720FBD52E
:2058000085128411A45B88A90091118810F9C65AF008A92020AAD74CF4D760488500201300
:20582000D786478448A400B9BBDA8504A4482012D6A54829FEA8A54729FEAA2009D7680A9E
:205840000AAABDCBDAE82084D7A90120AAD7BDCBDAE82084D7A91F20AAD7BDCBDAE8208468
:20586000D7A90120AAD7BDCBDAE82084D760865DAA98186920855EA9008511A9108512CADF
:205880003008A91020AAD74C6FD8A5128D0620A5118D0620AD0720A908855AAD072048C6CA
:2058A0005AD0F8A908855A688502A9808503A65DA45E201ED7A5022503F0062064D74CB45C
:2058C000D8204DD7A55D186904855D460390DFA55D38E920855DA55E38E904855EC65AD06B
:2058E000C660A000845FB113C9FFF019C8845FA656A457186560205ED8A55618692085561E
:20590000A45F4CD6D860A50BC50BF0FC60A60CA9009D8001AAE40CF026BD8001E88D06205C
:20592000BD8001E88D0620BD8001E8C9FFD00ABD8001C9FFD0DFBD7F018D07204C17D9A93B
:2059400000850C60B90000D005C8E84C34D9C9FFD008A56BD002CA88CA88A90085128411C4
:2059600060A9108556A9648557A9308560A03DB90000D00BC8A55618692085564C5FD9A9AF
:20598000008514841320D2D8A900856060A200A000B515D53DD008E8E007F0124C81D93082
:2059A0000DA200B515953DE8E007D0F7A001A200B51DD53DD008E8E007F0124CA0D9300D34
:2059C000A200B51D953DE8E007D0F7A0FF608A0A0A0A186906AAA00618B935007515C90A0A
:2059E000300738E90A384CDAD9189515CA8810E9608500A23520FED9A500F00D290F853AB5
:205A0000A5004A4A4A4A853960A901853860A9009500950195029503950495059506A9FF5B
:205A20009507608500A23520FED94C3AC00A900838E90AE63A4C1CDA853B608A85471869AB
:205A400003AA9838E90885482006D7B111C922D006A504056E8504A60DA5489D0002A553AF
:205A60009D0102A5049D0202A5479D03028A18650E850D600A18655385538A38E905AA207B
:205A80002BDA600A0A0A1865538553865484558A38E908AA202BDAE653E653A654A4552021
:205AA0002BDA60A60DA50E49FF186901850E8A18650EAAA9F09D0002E004D0F2860D60F03E
:205AC00009B005A9FF4CBADAA9016000000000000303030303010203000000000F000F0043
:205AE000000F0F0F000F000F0F00000F0F0F0F201020102020101010201020101020201080
:205B0000101010121212122222222221212121000000000000000000000000AD1103F0143C
:205B2000A2002038DBD020A2012038DBD019A9008D110360A2002038DBD007A2012038DBB5
:205B4000F005A9018D110360B50629F0F007B5A0F003A90160A90060A582F003C68260A518
:205B60007FF021A56C855AA65AB5A0D00FA584858220A0B7C67F2000B860EA60C65AA55AE4
:205B8000C901D0E360A50B2901D006A50B2903D06FA201B5A01066C9E0B062B56FF005D645
:205BA0006F4CA6DBBD030110042910D009B5062051E48500100EA9802020E4A90815A095C7
:205BC000A04CEDDBBD0301100E291FD00AA99C9D0301A9018D1003B5A02903C500F0184949
:205BE00002C500F012B59018690429F89590B59818690429F89598A50009A095A0CA1093BC
:205C000060A907855AAD0001F009A50B293FD003CE0001A65AE002B00FA50B2901D026A51E
:205C20000B2903D0234C35DCAD0001F008B5A01004C9E09013B5A829F0C9A0F008A55A4567
:205C40000B2901F003203DDCC65A10C760B5A04A4A4A29FEA8B998E48511B999E485126C86
:205C60001100E002B015BD03011010297FF00CDE0301B5B0490495B04C97DCB5A038E904D5
:205C800095A0290CD005A9A02020E460E0029017B5902907D011B5982907D00B204DD42957
:205CA0000FD0042072DE60B5A02903A8B970E40A0A0A8559B970E41875988557B96CE40ADE
:205CC0000A0A8558B96CE41875908556186558186559206EDDAAA5571865581865592076D5
:205CE000DDA82006D7B1113038F0044C05FFEAA55618655838E559206EDDAAA5571865599D
:205D000038E5582076DDA82006D7B1113013F0044C25FFEAA65AA5569590A55795984C29E5
:205D2000DDA65AE0029012204DD42903F012A9802020E4A90815A095A0B5B0490495B06054
:205D4000B5902907D00BB5982907D005A9902020E4B5A0490295A060204DD42901F01B2079
:205D60004DD42901F008B5A01869014C63DDB5A038E901290309A095A0602072DE60C556B1
:205D8000900338E90160C557900338E90160A5908571A59885724C9CDDA5918571A59985AA
:205DA000724C9CDDA9788571A9D8857220A2DD95A060A57138F59020AFDA1869018564A55D
:205DC0007238F59820AFDA18690185650A1865651865648564E002B00B8A0A450A2902F026
:205DE000134CDBDD204DD42901F009A909186564A84CE6DDA464B986E460D6A0B5A0290F50
:205E0000D053B5A038E910F00EC910D00509064C04DE090395A06095A0E002B008D651F069
:205E20000720A0B760C68060A568C980D027E001F012A552F01FA9038D0701A9208D05010B
:205E40002046DE60A551F00DA9018D0701A9C08D05012046DE60A90D8D0801A9D88D06016B
:205E6000A900850B60F6A0B5A0290FC90ED004A9E095A060F6A0B5A0290FC90ED00320ECC4
:205E8000E460A5844A4AC50AB005A9B04CA2DE4AC50A900A204DD4290309A095A060A5A0B5
:205EA000F0098A2901F009A5A1F005A9C04CA2DEA9D02020E460A900855AA65A20B8DEE6AB
:205EC0005AA55AC908D0F360B5A04A4A4A29FEA8B9B8E48511B9B9E485126C1100A90085F0
:205EE0006EB5A048B498B590AA6820E2DEA920856E604A4A4A4A38E90749FF1869010A0ACA
:205F00001869F18553A9038504207BDA60A900856EB5A8F01EB5A84A4A4A29FC38E910187D
:205F200069B98553A9038504B498B590AA207BDA4C2EDFB598A8B590AAA90020F0DEA920E5
:205F4000856E60A900856EB498B590AAA90820F0DEA920856E60A9038504A900856E2099D2
:205F6000DF8A38E908AA9838E908A8207BDAA9012099DF8A186908AA9838E908A8207BDA2A
:205F8000A9022099DF8A38E908AA98186908A8207BDAA9032099DF8A186908AA9818690801
:205FA000A8207BDAA920856E60A65A0A0A1869D18500B5A029F038E9304910186500855350
:205FC000B498B590AA60E0029023B5A82904F00DA50B4A4A4A29011869024CE9DFA50B0A01
:205FE0000A1875A82907A8B903E04CE9DFB56FF007A50B2908F001608A8504B5A029034CAD
:2060000040BB29F01875B08553B498B590AA682073DA600200000102010202B5A0290F3818
:20602000E907100549FF1869010A29FC1869A18553A9038504B498B590AA207BDA60A90971
:20604000855AA65A203CE0C65A10F760B5CC4A4A4A29FEA8B9D8E48511B9D9E485126C11DB
:2060600000B5CC2903A82063E0B5D62901F0032063E060B96CE40A1875B895B8B970E40A41
:206080001875C295C260D6CCB5CC290FD00DB5CC29F038E910F002090395CC60B5CCD047A0
:2060A000EAEAEAEAA9018D0F03B5A02903A8094095CCB96CE40A0A0A18759095B8B970E47E
:2060C0000A0A0A18759895C2A90095D6B5A829F0F015C9C0F008C960F0092980D009A901C8
:2060E00095D660A90395D660A909855AA65A20E6E0C65A10F760B5CC4A4A4A29FEA8B9E297
:20610000E48511B9E3E485126C1100B5CC2903482030BCEAB4C2B5B8AAA9028504682064D9
:20612000DA60B5CC48B4C2B5B8AA6818694020E2DE60A901855AA65AB5A01031C9E0B02DC1
:206140004CA0B803F027B5A829C0C940D01CB5CCF018B5D4D017B5CC95D4B5B895C0B5C22A
:2061600095CAB5D695DEA90095CC208CE0C65A10C560AD0001D019A207B5A0100EC9E0B0CB
:206180000A204DD4291FD00320E0BACAE001D0E960A907855AA65AB5A01063C9E0B05FB557
:2061A0009838E908A8B59038E908AA2006D7A65AA51195E0A512290395E8A021E002B0196A
:2061C000B111C921D00BA9801D03019D03014CC9E1BD0301297F9D030120F3E1B5902907E4
:2061E000D00BB5E8098095E8A02020F3E1B5982907D00BB5E8094095E8A00120F3E1C65AFD
:20620000109360B1110980911160A907855AA65AB5A0102BC9E0B027B5E08511B5E829039B
:2062200009048512A0212034E2B5E82980F005A0202034E2B5E82940F005A0012034E2C6FA
:206240005A10CB60B111297F911160A586F03CA562F016C662D007A90085864C7BE2A902D2
:206260008504A93B85534C6CE2A50B2908F01CA9028504A5880A0A1869818553A686A487AC
:20628000A900856E207BDAA920856E60A901855AA65AB589F01EA50B293FD002D689A90208
:2062A0008504B498B590AAA50B29020A1869298553207BDAC65A10D860A545F025A50B29FE
:2062C0000FD01FA50B293FD004C645F012A545C904B00FA50B2910F006209ECB4CD2E220C9
:2062E000F5CAA568F02F302DA9038504C668A5684A4A38E905100549FF18690138E9051017
:206300000549FF1869010AA8B906E38511B907E385126C110060F0DB12E317E31CE32EE3E3
:2063200036E3A9F14C1EE3A9F54C1EE3A9F9A278A0D88553207BDA601865694C22E3A900B1
:206340008569203EE360A9108569203EE360A270A0D0A9D12028E3A280A0D0A9D52028E304
:20636000A270A0E0A9D92028E3A280A0E0A9DD2028E360A90095A8E0022000A960E4959031
:20638000BD7CE49598A900956F4C93E3E66AA46AC003D005A900856A48A546290FA8B9905A
:2063A000B7C585900E68A8B977E49590B977E49598D00C68A8B998B79590B99BB79598B5AE
:2063C00090AAA90F200BD860E002B006A90A8D000160A9C8856F857060A5461002A9202986
:2063E000208D01018D020160A9E58514A5460A900318690E0A0A186970851320D2D860A950
:206400007395A0A9009D7001600315A8C9E7D002A9E495A8A90095B060A209A90095CCCAE4
:2064200010FB60A900A20795A09D0301CA10F8608500B5A0290F050095A06030F00C74F457
:206440000CB8F80C30F00C74F40CB8F80C30F0248BB979E5858CB97AE5858DB97BE5858ECB
:20646000600A9003A903600A9003A901600A9003A902600A9003A90060A9FF6000FF000116
:20648000FF0001001878D81818185898D8D8A0A0A2A2A2A2A2A2A0A0A0A1A0A3A2A2A2A155
:2064A000A0A3A1A0A3A1A2A3F0DBEADDEADDEADDEADDEADDEADDEADD52DC48DD7CDC94DD77
:2064C00089DD7EDD64DE55DEF0DBFDDE33DF46DF46DFCDDECDDECDDEB6DFB6DFB6DFB6DF2F
:2064E000B6DFB6DFF0DBF0DBF0DB76E076E076E051E0F0DB12E112E112E1FBE0BD7EE495AB
:20650000A0E002B010A9039589BD010115A895A8A90095B0604C00B22903A8B9A9C515A8B2
:2065200095A8A585C90C9008204DD429034C25E5204DD42907A8B9BFC515A895A8A585C981
:206540000C9008204DD429074C40E5204DD42903A8B9ADC515A895A8A90095B060E0A0B9F4
:20656000568015A895A8A90095B060A907C5469002A90185494C7EE9E002B00320BED960D9
:2065800054414E4B2041FFFF54414E4B2042FFFF54414E4B2043FFFF54414E4B2044FFFFC1
:2065A00054414E4B2045FFFF54414E4B2046FFFF54414E4B2047FFFF54414E4B2048FFFF91
:2065C00054414E4B2049FFFF54414E4B204AFFFF54414E4B204BFFFF54414E4B204CFFFF61
:2065E00054414E4B204DFFFF54414E4B204EFFFF31393934FF010F020000C8CA0000FF5C93
:206600005C5C5C5C5C5C5C5C5C5C5C5C5C5C5C5C5C5C5CFFA909855AA65AB5CC29F0C94073
:20662000D079B5D6D0078A450B2901F06EB5CC2903A8B949EA100549FF18690185540A0A40
:206640008564B94DEA100549FF18690185550A0A8565B4C2B5B8AA2093E6F013A65AB5C20A
:206660001865648548B5B81865658547209AE6A65AB5C238E554A8B5B838E555AA2093E6FF
:20668000F019A65AB5C238E56438E5548548B5B838E56538E5558547209AE6C65A30034C4F
:2066A00008E660864784482006D72025D7203CD7F067B11129FCC9C8D01CA568F0184C008B
:2066C000BA68A9018D0B038D07032008CCA65AA93395CC4C09E7B1114CF0BBEAA65AA933D0
:2066E00095CCB111C911F028B5D62902F00DA9002084D7A9018D0C034C09E7B111C910F0A1
:206700000FE002B005A9018D0C032043D7A90160E002B005A9018D0D03A90060A901855AD9
:20672000A65AB5A01004C9E090034C7AE7A907855BA45BB9CC0029F0C940D046B9B8003812
:20674000F590100549FF186901C90AB035B9C20038F598100549FF186901C90AB024A9337B
:2067600099CC00B589F008A90099CC004C72E74C66FFEA2093FFEA9D78019D010195A84C56
:206780007AE7C65BA55BC901D0A720A8FFEAA907855AA65AB5A01004C9E090034C34E8A940
:2067A00009855BA55B2906F0034C2DE8A45BB9CC0029F0C940F0034C2DE8B9B80038F59045
:2067C000100549FF186901C90AB072B9C20038F598100549FF186901C90AB061A93399CCA1
:2067E00000B5A82904F00B2060BBB5A8C9E4D002D6A8B5A82903F00A4CE0B9EA8D0E034C43
:206800002DE820EFE3EAA9018D0A03B5A84A4A4A4A4A38E904AAA55B29018547D005F67371
:206820004C15E8F677A58FC902F019BDBAE820E1D9A547AA20BED92038D14C34E8C65B3032
:20684000034C93E7C65AA55AC901F0034C82E7602054414E4B3031FF2054414E4B3032FF21
:206860002054414E4B3033FF2054414E4B3034FF2054414E4B3035FF2054414E4B3036FF52
:206880002054414E4B3037FFAC54414E4B3038FFAC54414E4B3039FFAC54414E4B3130FF87
:2068A000AC54414E4B3131FFAC54414E4B3132FFAC54414E4B3133FFAC54414E4B3134FFE6
:2068C0005DFF20FFFFFFFFFFFFFF10203040A9018D0903204DD429032002E98586204DD49C
:2068E00029032002E98587A9FF8588A90085622072E9A562D0DD204DD42907A820F3C5856B
:2069000088A9008562A65AA45B60000102030405060785000A1865000A1869060A0A0A60C9
:20692000A909855AA55A2906D051A65AB5CC29F0C940D047A907855BA55BA8B9CC0029F0E7
